:0200000460009A
:100000004643464200000156000000000103030081
:1000100000000000000000000000000000000000E0
:1000200000000000000000000000000000000000D0
:1000300000000000000000000000000000000000C0
:1000400000000000010408000000000000000000A3
:100050000000200000000000000000000000000080
:100060000000000000000000000000000000000090
:100070000000000000000000000000000000000080
:10008000EB04180A063204260000000000000000FD
:10009000050404240000000000000000000000002F
:1000A0000000000000000000000000000000000050
:1000B0000604000000000000000000000000000036
:1000C0000000000000000000000000000000000030
:1000D00020041808000000000000000000000000DC
:1000E0000000000000000000000000000000000010
:1000F0000000000000000000000000000000000000
:10010000D8041808000000000000000000000000F3
:100110000204180804200000000000000000000095
:1001200000000000000000000000000000000000CF
:10013000600400000000000000000000000000005B
:1001400000000000000000000000000000000000AF
:10015000000000000000000000000000000000009F
:10016000000000000000000000000000000000008F
:10017000000000000000000000000000000000007F
:10018000000000000000000000000000000000006F
:10019000000000000000000000000000000000005F
:1001A000000000000000000000000000000000004F
:1001B000000000000000000000000000000000003F
:1001C000000100000010000001000000000000001D
:1001D000000001000000000000000000000000001E
:1001E000000000000000000000000000000000000F
:1001F00000000000000000000000000000000000FF
:10020000FFFFFFFFFFFFFFFFFFFFFFFFFFFFFFFFFE
:10021000FFFFFFFFFFFFFFFFFFFFFFFFFFFFFFFFEE
:10100000D1002043ED15006000000000000000004A
:10101000201000600010006000640260000000000A
:10102000000000600070020000000000FFFFFFFFF2
:10103000FFFFFFFFFFFFFFFFFFFFFFFFFFFFFFFFC0
:10104000FFFFFFFFFFFFFFFFFFFFFFFFFFFFFFFFB0
:10105000FFFFFFFFFFFFFFFFFFFFFFFFFFFFFFFFA0
:10106000FFFFFFFFFFFFFFFFFFFFFFFFFFFFFFFF90
:10140000824205D051F8043B40F8043B8242F9D8AF
:10141000704700BF044A05494FF0000342F8043BFF
:101420009142FBD8704700BFC09A0020E0AB00207B
:1014300080B5BFF34F8F00F079FE534C534B08201B
:101440005349C3F85401534AC3F800115248C3F832
:10145000F0405249FFF7D4FF514A52495248FFF732
:10146000CFFF524CFFF7D6FF4FF470004FF0E02152
:1014700000234F4AC1F8880D44F823200133B02BD4
:10148000FAD14C4B80214C4A03F8011B9342FBD10B
:101490004FF0E025494F4A4A4FF0FF31C5F8084D5B
:1014A0000026D5F8243D43F4E023C5F8243DFB692C
:1014B00023F07F0343F04003FB617B6A23F07F034B
:1014C00043F040037B629166D1661167516700F07B
:1014D00035FE3C4B63223C49A3633C4BE36303234F
:1014E0006A613B4AAE612B61C5F8202DD5F8FC2D11
:1014F000384B42F08072C5F8FC2D1A6842F00102A8
:101500001A605B680B6000F0A3FE334801F018F826
:10151000F96E324B324A41F44051F9661E60C3F80D
:101520000861C3F81861C3F82861C3F83861936B88
:10153000DB0708D442F615632A4951651365936B9E
:1015400043F001039363264A274C936843F0011349
:10155000936000F0C1FD00F0FBFF00F0A7FE00F07B
:10156000E7FD2368132BFCD900F038FF2368B3F59F
:10157000967FFBD300F0E0FD00F0DCFD01F000F809
:1015800000F0D2FF30BFFDE70C0D111300800D40BD
:101590001B101820A8A001000000000054280060C3
:1015A000C09A002000C901600000002000980020BF
:1015B00029D6000000E400E0A0E400E000C00F40F5
:1015C00000C00A40A1C5000070AB0020A5C5000006
:1015D00000002020001000E00046C3230040084027
:1015E00000400D400000C05674AB0020054B4FF486
:1015F0002A01054A05485A641864054A99639546C4
:10160000FFF716FF00C00A40FFAAAAAA07002000A1
:10161000000006201BB9124B1B6F9B041ED400F068
:101620003F000F4B22F0604221F0604140F48910EE
:101630001867C3F88010C3F890201A6F22F4805204
:101640001A671A6F002AFCDAD3F87011054A0A40AB
:10165000C3F870211A6F22F480321A67704700BFF6
:1016600000800D40FF7F7FFF43690A4A03EB0110B2
:1016700010B4037A084C02EB0313D3E9013214606F
:10168000C2681A6003690BB142691A605DF8044BC5
:10169000704700BF047B002061F801004369027EAF
:1016A00003EB021292F808C08C451CD01A7AFF2A6C
:1016B00019D0914210B5044616D01A7EFF2A06D0E2
:1016C0000121D3E9002312681A4201D1217610BD0D
:1016D000064B0522204603EB0C135B681A60FFF7EC
:1016E000C3FF2176F3E770470021EAE7047B00207F
:1016F00043690A4A03EB011010B490F82830084CF3
:1017000002EB0313D3E901321460C26A1A60036B5F
:101710000BB1426B1A605DF8044B7047047B0020EC
:1017200061F801004369427E03EB021292F828C07F
:101730008C451ED093F82820FF2A1AD0914210B56C
:10174000044617D093F83820FF2A06D00121D3E9A8
:10175000002312681A4201D1617610BD064B0522A2
:10176000204603EB0C135B681A60FFF7C1FF61763C
:10177000F3E770470021EAE7047B0020164942693D
:101780008B6B23F47C0343F4802370B58B63044696
:10179000124DD2E900130A681A4303690A60022253
:1017A00000211A610E4A19619A6401225A629D62EF
:1017B0004FF43035DD624FF001159E6C1E651962E5
:1017C0009D651A61017EFFF74FFF617E2046BDE8EF
:1017D0007040FFF78DBF00BF00C00F40B80B05057C
:1017E0003B372819B1F5607FF0B50E468DB028BFA4
:1017F0004FF460760F46054672B62E4B00247022D9
:10180000186021462C4B2D481C8000F0BDFECFB146
:1018100021462A484FF0010C4A0901F01F0301310B
:1018200050F822400CFA03F38E4243EA040340F8D6
:101830002230F1D8284600234380013300F582701E
:101840009E42F9D81E4C257815B162B60DB0F0BD98
:10185000082000F089FE1B4B80220646009302A957
:101860000693194B0271056008A8029300F080FEF0
:1018700006A9164A304600F067FE069B08A8DB68FA
:101880009847009B02A8DB6898472378002BDCD19F
:101890000F4B104AC3F858210F49D0204FF0E023D6
:1018A000402281F84600C3F808210123237062B664
:1018B0000DB0F0BD48A600209AAB002050A6002035
:1018C000ADAB0020A80C0020E5BF00001B100100FC
:1018D00000980020F1BF000000E400E0204B002051
:1018E00030B4C3E92000C3E92200C3E92400C3E9FE
:1018F0002600C3F8A800BFF34F8F4FF0E02319492B
:10190000194AC3F8701FC3F8702FBFF34F8FBFF38E
:101910006F8F164B0146164C01229D6804F6DC744D
:101920009D601863134B44F81C0C18460233008862
:10193000A34212FA80F21144F7D192B20C4B42EA60
:101940000142C3F8DC2FBFF34F8F4FF0E023094A69
:10195000C3F8682FBFF34F8FBFF36F8F30BC704752
:1019600000FF272080FF2720A0FF272000800F40B6
:1019700000F02720C0FF2720B24BD3F880200B2A8D
:101980002DE9F0470D461BD14FF0FF3CAE49AF4B60
:10199000AF4E081D8CEA020C20240CF00102013C21
:1019A00003FB02F282EA5C0CF7D1B04202D04A6833
:1019B0000146EEE7DFF88C82D8F8A8309C4579D054
:1019C0002B681722A34928465B689847284600F0F1
:1019D000DFFD2B684822A0495B68284698472846C7
:1019E00000F0D6FD2B6849229C495B682846984741
:1019F000284600F0CDFD2B68242299495B682846D3
:101A00009847284600F0C4FD2B68472295495B683B
:101A100028469847284600F0BBFD2B683F22924994
:101A20005B6828469847284600F0B2FD8F4B9C68BB
:101A3000A2070DD51A6B8E4B9A422B6800F0748169
:101A400040228C495B6828469847284600F0A0FD54
:101A5000670700F15F81260700F15281E00600F17F
:101A60004581A10600F13881620600F12B81230631
:101A700000F1DD8014F4807440F0AD80714BD3F838
:101A8000C06096B1D3F8DC700122C0337A481946A1
:101A900002330988834212FA81F21444F7D193B2D7
:101AA00043EA04439F4200F07C81FFF717FF0120C7
:101AB000BDE8F0872B680C22704928465B68984780
:101AC000284600F065FD2A68D8F8A49028466C4B9B
:101AD000D2F804A0A3FB09276A497F09A3FB0723C7
:101AE00026225E09C8F8A460D04767490A22284622
:101AF000A1FB06312346090901EB4101A6EBC10117
:101B000000F01AFD2B68C6EB061601225B6828461A
:101B10005E4998472346A7EB86010A222846C7EB71
:101B2000071700F009FD2B68012258495B68284619
:101B300098472346A9EB87010A22284600F0FCFCBF
:101B4000284600F025FD2B68242251495B68284671
:101B5000984723461022D8F89810284600F0ECFC4D
:101B6000284600F015FDD8F88860002E40F0DF8090
:101B7000344ED6F88C40002C40F0FA802B6822229C
:101B8000444928465B6898472E4B0221284693ED2E
:101B9000280AB7EEC00A00F0CBFC2B6804223E49AD
:101BA0005B6828469847284600F0F2FC2B681D2207
:101BB0003A495B6828469847394A3A4800231168F1
:101BC0000A22A0FB01012846890C00F0B5FC2B6815
:101BD0000322354924E72B682922344928465B68CB
:101BE0009847284600F0D4FC2049286821228B68B9
:101BF0004468284623F480738B602D49A04728460B
:101C000000F0C6FC2B6842222A495B6828469847A8
:101C1000284600F0BDFC284A284B07211964936B25
:101C200043F040039363BFF34F8F30BFFDE72B6852
:101C30002122234928465B689847284600F0A8FCE3
:101C400018E700BF00FF272080FF27202083B8ED82
:101C5000A8FF272088830020A0830020EC83002099
:101C60003884002060840020A884002000800F4079
:101C7000F100AD0B34850020DCFF2720747E0020AE
:101C800089888888847E0020ABAAAAAAAC7E00201E
:101C9000B07E0020388300205C8300206483002015
:101CA0003089002083DE1B43848300206886002067
:101CB00094860020B886002000400D4000C00A40F5
:101CC000448600202B6821229C4928465B6898475F
:101CD000284600F05DFCCAE62B6829229849284670
:101CE0005B689847284600F053FCBDE62B68262227
:101CF000944928465B689847284600F049FCB0E6BE
:101D00002B682A22904928465B689847284600F0AD
:101D10003FFCA3E62B6827228C4928465B6898473E
:101D2000284600F035FC96E6482289498AE62B6869
:101D30000822884928465B68984723461022D8F82D
:101D40008810284600F0F8FB284600F021FCF40734
:101D500069D4B00700F15381310700F14481F206E4
:101D600000F15D81B30667D52B682A227A495DE0D0
:101D70002B680822794928465B689847002310227F
:101D8000D6F88C10284600F0D7FB284600F000FC5F
:101D9000A00767D461007FF5F1AE2B681B22704964
:101DA00063E00124DFF8F4A1DFF8F491DFF8D481D7
:101DB00005E00134072C3FF478AED8F8C060631E0C
:101DC000012707FA03F23242F3D009EB83062B68AE
:101DD0000E2251465B68284698472146284600F067
:101DE000CBFB2B6805225F495B68284698477168E2
:101DF00000230A22284600F09FFB2B6804225A4940
:101E00005B6828469847716800231022284600F036
:101E100093FB2B683A4655495B6828469847284605
:101E200000F0B6FBC5E72B68282251495B682846BD
:101E30009847284600F0ACFB37063CD4F4051BD489
:101E4000B00500F1D880710500F1D180320500F1B4
:101E5000E280F30400F1DB80B70416D52B68312251
:101E600044490CE02B682622434928465B68984782
:101E7000284600F08DFB81E62B6820223F495B68F5
:101E800028469847284600F083FB340440D4F003EA
:101E90002ED4B10300F1B78072034BD4330300F1A9
:101EA000C680F70100F1BF80B4017FF561AE2B68F9
:101EB0001B2233491FE02B682122324C284632492D
:101EC0005B68984710220023D4F89010284600F051
:101ED00033FBD4F890201F2A64D92C4B9A4203D3A9
:101EE00020339A42C0F0A780284600F051FBA5E7B6
:101EF0002B68232226495B682846224E98472846AD
:101F000000F046FBD6F88C40002C3FF437AE2FE7AC
:101F10002B6821221F4928465B68984719490023EE
:101F20001022D1F89410284600F006FB284600F055
:101F30002FFBACE72B6828221749DCE7208600201E
:101F4000F4850020CC850020A08500207885002025
:101F5000E8840020D87E0020887F0020E8820020CE
:101F60001C8300200C87002014870020EC800020B8
:101F7000E47E0020AC810020F48200209C800020C0
:101F8000CC82002000FF2720B47F0020E0AB00209F
:101F900004820020E08100205C820020FC8600207A
:101FA000C0FF27202B681F22264928465B689847D8
:101FB000D4F8981000231022284600F0BDFA2B68B0
:101FC0003F2221495B6828469847D4F8981000239F
:101FD0001022284600F0B0FA2B681D221B495B68CE
:101FE0002846984780E72B68292219491EE72B6865
:101FF0004422184943E72B682D2217493FE72B68F5
:102000002122164912E72B683122154973E72B6804
:102010003322144933E72B683F2213492FE72B68FB
:102020002522124902E72B682822114963E72B6811
:10203000162210495FE72B6842220F4928465B6849
:10204000984751E7D87F0020F87F00203880002093
:10205000347F0020F0800020C0800020107F00200E
:10206000288200207881002038810020607F0020B5
:10207000A08200208882002058800020124BD3F8D4
:1020800080300B2B1ED14FF0FF32104830B5104D71
:10209000104C01E06B68754605F1040E5A40202192
:1020A00002F00103013900FB03F383EA5202F7D186
:1020B000A645EFD1044BD3F8A800801AB0FA80F0FF
:1020C000400930BD0020704700FF27202083B8ED75
:1020D00080FF2720A8FF2720104BA020104AD96E90
:1020E00041F4403110B4D96640F23764D96E41F4FE
:1020F0004071D96654649064936C1B06FCD4094A01
:1021000040F23761A02351649364936C13F0800311
:10211000FBD1054A13705DF8044B704700C00F40B7
:1021200000400C4000800C40B3AB0020704700BF63
:10213000704700BF704700BF00BF704710B44FF03A
:10214000E023002110243248C3F8941DC3F89C4DAD
:102150001124C3F8A00D2F48C3F89C4D1224C3F8D6
:10216000A00D2D48C3F89C4D2C4AC3F8A00D2C4C53
:1021700042F015022B48C3F89C4DC3F8A00D2A4C21
:102180002A48C3F89C4DC3F8A00D294CC3F89C2DD8
:102190002848294AC3F8A04DC3F89C0DC3F8A02DC8
:1021A00002F5A022254C0C322548C3F89C4DC3F8FB
:1021B000A02D244AC3F89C0DC3F8A02D02F1406263
:1021C000214C02322148C3F89C4DC3F8A02D0A329D
:1021D000C3F89C0DC3F8A02D00BF00BF00BF00BF17
:1021E00000BF0122C3F8942DBFF34F8FBFF36F8F51
:1021F000C3F8501FBFF34F8FBFF36F8FD3F8142D69
:102200005DF8044B42F44032C3F8142D704700BF10
:102210003F0000102500080709001000E0AB002077
:1022200013002000210002071400002025000813DD
:10223000090000101600202027000B131700004093
:10224000180000602F000B07190000701A000080B2
:10225000F0B4154A40274FF480314FF480564FF4C4
:1022600000554FF4404443F24200136913F0020F4B
:102270000ED113F4005F0FD013F4805F0ED0002B4B
:10228000F3DA13F4803F0BD15B060BD5F0BC70473B
:10229000946151619061E8E75561E6E75661E4E7D2
:1022A0009161E2E75761E0E700800D403F4A03207B
:1022B0003F49F3EE095AD2F880304FF0000C9FED01
:1022C0003D6A23F001039FED3C5A30B4C2F88030E0
:1022D000C2F89000D1F8E010384DCBB2384C3948F4
:1022E0002B6007EE903A0B0DC1F30B21F8EEE77A65
:1022F00006EE903A07EE101A334BB8EEC77A21601B
:10230000F8EEE66A314937EEC66A37EEC55A76EE20
:10231000C76A77EEE57A26EE266AC3ED006A25EEF7
:10232000265AD2F8803067EEA64AC0ED007AC6EE93
:10233000275A274885EE276AC4EEA76A75EE875AA2
:10234000FCEEE55A36EE076A15EE904ABCEEC66A18
:1023500043EA045376EE877AC2F8803016EE103ADC
:10236000D2F89041FCEEE77A01EA0341214317EEEF
:10237000903AC2F89011C3F30B03D2F890110B43BB
:102380001449C2F89031D2F8803043F00203C2F809
:102390008030114B80F840C0C1F840314FF0E0234D
:1023A000012230BCC3F80821704700BF00810D40F6
:1023B00000441F400000AA420000B44260AB00206D
:1023C0005CAB002064AB002068AB00200000FF0F76
:1023D00000E400E00098002015D80000314B40F6E2
:1023E000617210B5C3F8202140F2044400F0B4F843
:1023F0002D4A2E49D2F880302D4843F00303C2F80D
:1024000080302C4BC1F8604102681A4203D1D1F8E8
:10241000A8319A071BD0254A4FF00041244B59633D
:10242000D2F8403143F00203C2F84031D2F84031D3
:102430009B07FBD44FF400304FF0E0211C4B4FF0D2
:102440000042C1F88C0219209A6300F089F8184AFA
:102450004FF08040154C002190630A20164B11600C
:102460004FF42072C4F8A801184600F08DF84FF41C
:10247000800203464FF4810040F243111860C4F813
:1024800058311A640D4B0E4AC4F84811C3F804229F
:102490004FF0E0224FF400310123C2F80C11C4F8D0
:1024A000403110BD00800D4000C00F4000002E40A4
:1024B00000900D40001C1E0000000020009800202D
:1024C000FDD9000008B50E4B1B6E9B0700D4FBBE68
:1024D00072B60C4B00200C4AC3F8400103F1604374
:1024E0000A49A3F55F2311649D46BFF34F8F4FF454
:1024F00000130748074ADB6902609B68984700BFE2
:1025000000441F4000002E4000C00A40030020008D
:1025100000802020000012EBF8B500BFF8BC08BC1A
:102520009E467047000000005FF800F049D10000AF
:102530005FF800F009C900005FF800F0DDC8000096
:102540005FF800F075CC00005FF800F085C6000071
:102550005FF800F0F5D400005FF800F06DE10000D6
:102560005FF800F065CF00005FF800F08DD200004A
:102570005FF800F059C000005FF800F08DC800005F
:102580005FF800F01D1F01005FF800F0F118010076
:102590005FF800F0A5C80000450000005D1F0000C6
:1025A000F1200000052600001D2600003526000051
:1025B0004D260000652600007D26000095260000BF
:1025C000AD260000C5260000DD260000F52600002F
:1025D000992B0000B12B0000C92B0000E12B00005B
:1025E000F92B0000112C0000292C0000412C0000C8
:1025F000752C0000A52C0000BD2C0000D52C00007F
:10260000ED2C0000052D00005143000089C700009B
:102610001F1C1F1E1F1E1F1F1E1F1E0053756E4DE9
:102620006F6E547565576564546875467269536179
:10263000740000004A616E4665624D6172417072BD
:102640004D61794A756E4A756C4175675365704F77
:1026500063744E6F764465630000000080C00F40D5
:10266000000000031900000010000000E8841F4073
:1026700001000000FF000000FF000000000000005B
:10268000000000001800000010000000E4841F405B
:1026900001000000FF000000FF000000000000003B
:1026A000000000001F000000D9BF000070C00F40F4
:1026B000000C00001100000011000000E0841F4029
:1026C000020000002400000012000000E0841F400F
:1026D000010000001000000011000000DC841F4019
:1026E000020000002500000012000000DC841F40F2
:1026F000010000001E000000CDBF000070C00F40B0
:10270000C00000001200000013000000D0841F4031
:1027100001000000FF000000FF00000000000000BA
:10272000000000001300000013000000CC841F40D4
:1027300001000000FF000000FF000000000000009A
:10274000000000001C000000C1BF0000160355007F
:1027500053004200200053006500720069006100D0
:102760006C00000018035400650065006E007300E3
:1027700079006400750069006E006F0004030904AD
:1027800009026200030100C032080B0002020201CC
:1027900000090400000102020100052400100105E7
:1027A0002401010104240206052406000107058214
:1027B0000310001009040100020A000000070503CD
:1027C00002400000070584024000000904020002E4
:1027D000FF6AFF0007058102400001070501024072
:1027E0000001000009026200030100C032080B0072
:1027F0000202020100090400000102020100052496
:10280000001001052401010104240206052406002C
:10281000010705820310000509040100020A0000F7
:1028200000070503020002000705840200020009F8
:1028300004020002FF6AC7000705810200020107C7
:1028400005010200020100000A060002EF02014039
:042850000100000083
:102854000000000000000000000000000000000074
:102864000000000000000000000000000000000064
:102874000548064B1B1AD90F01EBA301491002D0DE
:10288400034B03B118477047C09A0020C09A002038
:102894000000000008B5054B1BB105490548AFF31E
:1028A4000080BDE80840FFF7E3BF00BF0000000060
:1028B4000CAB00200070026038B590F845330BB9BA
:1028C400184638BD04460D4602F066FE29462046E9
:1028D400BDE8384002F008BF02F05EBE03F098BBCA
:1028E400B5EEC00AF1EE10FA0DD4F7EE007A90F8C6
:1028F4004433B4EE670AF1EE10FA37FE800A80ED35
:10290400D20A43B970479FED0B0A90F8443380ED27
:10291400D20A002BF6D09FED087A00F53A70DFED6D
:10292400077AE0EE077AFCEEE77A17EE901A02F0E7
:102934008FB900BF0000000000000143EE7CFF3EA1
:1029440069B372B690F8903203F0FF0213B100231A
:1029540080F8903262B62AB372B647F6FF7C4FF421
:102964000042B0F99232B0F99412A0F892C2A0F8E1
:10297400942262B6002983EAE3729FED0E7AB8BF0F
:102984004942A2EBE37289B293B28B42B8BF0B46C1
:1029940007EE903AF8EEE77A87EE870A7047D0F8A8
:1029A400C03213B9BFEE000A704700F5267001F07B
:1029B40093BF00BF00FEFF4638B504463C211848CB
:1029C40004F53A752DED028BB0EE408A19F08CFFB8
:1029D400284602F0F7F884F8440384EDD28A80B9DB
:1029E4000B21104803F0E0FC0D210E4803F0DEFC3F
:1029F4000A210D4804F058F884F84503BDEC028B15
:102A040038BD9FED0A7A2846DFED097AE8EE077AA9
:102A1400FCEEE77A17EE901A02F01AF9E0E700BF2D
:102A24000000202034890020C8A0002000000143B9
:102A3400EE7CFF3E38B590F844330446ABB194F8CD
:102A4400453323B194F844336BB9002038BD0A21CF
:102A5400124804F029F894F8443384F84503002B11
:102A6400F3D00028F1D0012038BD00F53A7528468E
:102A740002F0A8F884F844030028E0D0D4EDD26A28
:102A840028469FED077ADFED077AE6EE877AFCEEBB
:102A9400E77A17EE901A02F0DBF8D0E7C8A000201E
:102AA40000000143EE7CFF3E08B5002120200CF01D
:102AB4003BFF00211E200CF037FF00211C200CF0EE
:102AC40033FF20200CF01EFF01280ED01E200CF036
:102AD40019FF012808D01C200CF014FFA0F10100FC
:102AE400B0FA80F04009400008BD002008BD00BFD6
:102AF40038B590F8B43303B938BD0446D0F8B013F0
:102B04000830FFF7D9FE18B3D4F8B83301220821EE
:102B14001948134484F8B523C4F8B8330EF0B6FA50
:102B2400D4F8B05335B1284611F0B2FE0146284618
:102B34000EF0ACFA062111480EF0A8FAD4F8B81336
:102B44000F480CF0CBFA0E48BDE838400CF0D2BA6E
:102B54000F210C480EF09AFAD4F8B04334B1204651
:102B640011F096FE014620460EF090FA0448BDE8A6
:102B740038400CF0BFBA00BFDC070020E807002093
:102B840084890020F0070020134AD0F8DC1313686E
:102B94005B1A182B00D8704710B51368044601213E
:102BA4000830C4F8DC33FFF7CBFEB5EEC00AF1EE13
:102BB40010FA10D4D4EDEF7A0620F8EEE77ABDE8E7
:102BC400104027EE800AFDEEC07A17EE901A81F3CA
:102BD40008010DF013B810BD74AB00202C4B1A681B
:102BE400D20730B5044685B008D52A4D2A4A29684B
:102BF40013685B1A312B0BD805B030BD264A01206F
:102C0400244D11681860136829605B1A312BF3D9BD
:102C1400136816202B600CF0FDFB07EE900AB2EE51
:102C2400047AD4EDD46AFAEECB7A67EE877AF8FEAA
:102C3400677A87EE870AB4EE660AF1EE10FADBD003
:102C440004F10800FFF74CFE072114480EF01EFAA9
:102C540094EDD40A02211248B7EEC00A0CF07CFAB3
:102C64000F480CF047FA94EDD47A08210D4AB7EED8
:102C7400C77A0DEB01008DED007B0FF0F7FF02AB7F
:102C84005622302104F5587000F0A6FE05B030BD80
:102C94009CA50020E4A7002074AB0020D0050020F0
:102CA40084890020D80500202DE9F0417E4D47F2AB
:102CB4002F52D0F8C41304462B685B1A934235D8BC
:102CC40000F1080790F8B463D4F8C8232B689B1A62
:102CD40041F2873293420FD92B6804F55878C4F82F
:102CE400C833002E40F09F80704B4046482230216C
:102CF40000F072FE94F8B463002E45D13846FFF715
:102D0400EDFD002840F09F800121204600F01EFFC9
:102D1400002106200CF072FF2B6844F61F62D4F8E1
:102D2400CC135B1A934244D8BDE8F0812B6814227B
:102D3400082100F55670C36600F0BEFD94F8B43364
:102D44000646834200F0838004F55878002846D074
:102D5400574B57223021404600F03EFE94F8B463AE
:102D6400002E53D1601C00F045FD01222B6884F82D
:102D7400B423D4F8C823C4F8B8639B1A41F2873249
:102D8400934275D804F108073846FFF7A7FD0028D9
:102D94004BD12B68D4F8D4239B1AB3F5FA7F59D2BC
:102DA4002046022100F0D2FE002106200CF026FF6E
:102DB400B2E7296804F558753D4B52222846C4F8F9
:102DC400CC13312100F008FE96200CF0F3FC2846C9
:102DD400374B52223221BDE8F04100F0FDBD344BA7
:102DE40053223021404600F0F7FD94F8B433002B11
:102DF40049D004F10807601C00F014FD84F8B463A2
:102E04003846FFF769FD94F8B4635DE7D4F8C82346
:102E140004F108072B689B1A41F287329342B3D915
:102E24002B68C4F8C833234B5FE72046FFF7ACFE9A
:102E340094F8C0331BBB0821204600F087FE2B68A2
:102E4400C4F8D43368E73846FFF746FD5CE704F17D
:102E5400080739E7164B5022302104F5587000F06A
:102E6400BBFD2046FFF744FE2B68C4F8D43397E734
:102E74002B6804F10807C4F8C8330E4B35E7204625
:102E8400FFF7ACFED7E7D4F8C82304F108072B6892
:102E94009B1A41F2873293427FF630AF2B68C4F815
:102EA400C833024B21E700BF74AB0020A805002003
:102EB40028080020A40500201A4BD0F8D02370B5B0
:102EC4001E68044690F8B433B61A53B10830FFF7BD
:102ED40005FDD0B9144920468E428CBF062102213B
:102EE4000BE000F108052846FFF7F8FCB0B90E49DD
:102EF40020468E428CBF0621012100F027FE0021CE
:102F04000620BDE870400CF079BE2046FFF73CFE79
:102F140020460821BDE8704000F018BE2846FFF79F
:102F2400DBFCE4E774AB0020905F010070B5132173
:102F340004464C480EF0AAF84B480CF0DBF8052187
:102F44004A480EF0A3F894F8AC1347480CF0C6F8BE
:102F540045480CF0CFF8052145480EF097F8D4F811
:102F6400B05335B1284611F093FC014628460EF0C3
:102F74008DF83D480CF0BEF894F8AC33002B66D0C5
:102F840006213C480EF082F894F8B4333A4E002BF4
:102F94003A4D15BF03210221304628460EF076F83B
:102FA40031480CF0A7F8082135480EF06FF894F872
:102FB400B533002B15BF03210221304628460EF0FD
:102FC40065F829480CF096F807212E480EF05EF8B3
:102FD40094EDD40A02212448B7EEC00A0CF0BCF8E0
:102FE40021480CF087F80A2127480EF04FF8D4F84E
:102FF400BC131D480CF072F81B480CF07BF80B2135
:1030040022480EF043F8D4F8B81317480CF066F8C9
:1030140015480CF06FF809211D480EF037F80DF033
:1030240023F80221B7EEC00A0F480CF095F80221EC
:1030340018480EF02BF80C480CF05CF810211648D8
:103044000EF024F80848BDE870400CF053B8042191
:1030540012480EF01BF8044904F5567000F076FC93
:103064008EE700BF3C060020848900205006002023
:103074005806002068060020380600203406002088
:10308400DC070020D0050020700600207C0600200C
:103094008806002094060020980600206006002080
:1030A40010B51221044618480DF0F0FF17480CF033
:1030B40021F894F8AC33BBB194F8B433FBB90023D2
:1030C4000721204684F8B43300F040FD104A40F64E
:1030D400B730116813685B1A8342FBD94FF0E023C1
:1030E4000C4AC3F80C2D10BD0B4B4222302104F5C1
:1030F400587000F071FC94F8B433002BDFD0601CDE
:1031040000F090FBDBE700BF20060020848900204C
:1031140074AB00200400FA05280800202B3910B5F0
:1031240004462D2924D8DFE801F02F234923232343
:1031340023232323232323232323235123666F239E
:10314400238623232323238A2323A523232323BF63
:1031540023C3C72323D8172490F8B43343B9601C7E
:1031640000F048FB0122002384F8B423C4F8B833E8
:1031740010BD0830FFF7B0FB0021062084F8B5131A
:10318400BDE810400CF03ABD90EDD40A0830DFEDF4
:103194005A7A30EE270AFFF7A3FB072157480DF0B0
:1031A40075FF94EDD40A02215548B7EEC00A0BF01E
:1031B400D3FF5348BDE810400BF09CBF90EDD40AF8
:1031C4000830DFED4D7A30EE670AE4E7D0F8BC331F
:1031D40004214C48193B23EAE373C4F8BC330DF0D3
:1031E40055FFD4F8BC1346480BF078FF4448BDE8BB
:1031F40010400BF07FBFD0F8BC3304214148193391
:10320400FF2BA8BFFF23E8E73A213F480DF03EFF1C
:103214003B480BF06FFF23213C480DF037FF384843
:103224000BF068FF36213A480DF030FF3448BDE812
:1032340010400BF05FBFBDE81040FFF731BF90F8BE
:10324400AC33002B94D0002A92D01378002B8FD06B
:10325400304B90F8B4131B68C0F8D0331378A3F143
:103264003102B2FA82F252098A4281D0312B3FF400
:1032740076AF26E090F8C0330521274883F0010398
:1032840084F8C0330DF002FF94F8C023234B002AC6
:10329400234812BF0221032118460DF0F7FE1848F7
:1032A400BDE810400BF026BFBDE81040FFF720BC7E
:1032B400BDE81040FFF73ABE90F8B433002B3FF45A
:1032C40057AF601C00F0AEFA002304F1080084F844
:1032D400B433BDE81040FFF7FFBA002A3FF448AF0B
:1032E4001378002B3FF444AF10460EF0F7FF04F1BF
:1032F4000800B7EEC00B4EE7CDCCCC3DD005002086
:10330400848900203407002044070020800700201F
:10331400A407002074AB00203C0700202C070020E9
:1033240030070020F0B590F8AC538FB04DB30B7854
:103334000446302B07D0012D43D0022D0CBF32227E
:103344004C2293421BD14B78522B32D194F8B46364
:1033540094F8B5730CF088FEB7EEC00A2B461A4AEF
:10336400282104A8019700968DED020B0FF07EFC36
:1033740004AB73224C2104F5587000F02DFB0FB000
:10338400F0BD0B784C2BFAD14B78732BF7D18C1CF6
:103394000E4811210DF07AFE204611F079FA01460B
:1033A40020460DF073FE0A480FB0BDE8F0400BF064
:1033B400A1BE8A1C204619460FB0BDE8F040FFF7B5
:1033C400ADBE3122BDE700BFC0050020AC05002022
:1033D40084890020F0B597B005460DF0CBFD3A285E
:1033E40043D00DF02DFEC4B2202C3CD995F8AC335B
:1033F4003BB9582C05D83B2C0BD82B2C11D02D2C99
:103404000FD0534A2146284617B0BDE8F040FFF7D5
:1034140085BEA4F13C034F4ADBB222FA03F3DB0777
:10342400EFD54B4B2246302105F5587000F0D4FA05
:10343400E7E704F1580300220DEB0304464B04F8BC
:10344400302C0A9A9A4230D0444B0A9A9A424FD06E
:10345400434B0A9A9A425DD0112142480DF016FE60
:1034640041480BF047FE17B0F0BD404E0DF0E8FDAB
:103474000024376805E03368DB1BC82BD9D82F2C10
:10348400D7D00DF099FD0028F5D00DF0D9FD04F149
:1034940058030DEB0302C3B20A2BCAD00D2BC8D0BC
:1034A4003768013402F8303CE9E7BDF82C2046F6D1
:1034B40069539A42C8D19DF82E30652BC4D109AA0C
:1034C40008AB07A806A9CDE90232CDE9001005AB87
:1034D40004AA27490DF12F0010F02EFC06281FD056
:1034E400232124480DF0D2FD1F480BF003FEBAE758
:1034F4001B4B0B9A9A42ABD105F55675284600F042
:103504000FFA13211C480DF0C1FD1749284600F09D
:103514001DFAA8E7144905F5567000F017FAA2E75A
:10352400DDE90630DDE9082105F556750090CDE9A1
:1035340001212846DDE9041200F0D6F908210F48DC
:103544000DF0A4FD0849284600F000FA8BE700BFFF
:1035540028080020450090187365747473796E63AD
:1035640074696D65180700208489002074AB0020FD
:10357400B4060020D406002004070020C80600205A
:1035840090F84C3370B504468CB02BB390F84D339F
:1035940013B304F108060DF00FFD10B12046FFF738
:1035A40019FF04F5587501E0FFF7BCFE01A9284690
:1035B40000F040FA034601A92046002BF4D130461E
:1035C400FFF78CF994F8AC3384F8B5032046ABB913
:1035D400FFF76AFB0CB070BD0A4A40F6B731D4F865
:1035E400D80313681B1A8B42D3D9136804F1080655
:1035F400C4F8D8333046FFF71DFACCE7FFF75CFC7C
:103604000CB070BD74AB00202DE9F0475D4D06464B
:103614005D4C40F2EE29DFF8A8812F68DFF8A4A101
:103624000DF0B2FD2378002B67D098F80030DB074B
:1036340063D52B68DAF800209B1A0E2B5DD906F5AA
:1036440058704FF4165100F0C1F9504819F038F988
:10365400002861D13046FFF727FA012886F8AC0329
:1036640058D04B4B4B4A022808BF1346C6F8B03318
:10367400052149480DF00AFD96F8AC1347480BF0B4
:103684002DFD062146480DF001FDD6F8B04334B1B6
:10369400204611F0FDF8014620460DF0F7FC3F48A6
:1036A4000BF028FD304600F03BFA701C00F08CF85B
:1036B400012106200CF038F908200CF0BDFB002194
:1036C40006200CF09BFA9FED370A06F10800FFF77D
:1036D40073F996F84C33002B48D096F84D33002BF1
:1036E40038D096F8AC331BB30F212F480DF0CEFC25
:1036F4002A48BDE8F0470BF0FDBC2B682278DB1BA1
:103704002AB1B3F5FA6F9AD80DF03EFD88E74B4520
:10371400FAD994E7254BA9E7072125480DF0B6FC13
:103724001E491A4819F0D4F81C480BF0E3FC91E741
:1037340006F5567000F08EF80028D5D108211D48F2
:103744000DF0A4FC15480BF0D5FC0521304600F023
:10375400FDF9C9E7072118480DF098FC0F480BF054
:10376400C9FC0321304600F0F1F9BAE70A211348F5
:103774000DF08CFC09480BF0BDFC0421304600F030
:10378400E5F9AAE774AB0020BBAB00202889002030
:10379400F8080020E4080020500600208489002056
:1037A400E80500209A99193F10060020D808002047
:1037B400E005002004060020FC050020F0050020A0
:1037C400BAAB002084AB002010B5012104461120BF
:1037D4000CF0AAF8012110200CF0A6F80021112009
:1037E4000CF066F8002110200CF062F8002323701E
:1037F40010BD00BF037803B1704710B50121044622
:1038040011200CF055F84FF4FA700BF0D3FF01219E
:1038140010200CF04DF84FF4FA700BF0CBFF01239D
:10382400237010BD037803B9704710B50021044616
:1038340010200CF03DF84FF4FA700BF0BBFF0021A0
:1038440011200CF035F84FF4FA700BF0B3FF00239D
:10385400237010BD70B5054684B014490AF05AFAB5
:103864000446287110B9204604B070BD28460AF0F9
:1038740069FA06460028F6D0294668460AF0DAFABC
:103884009DF8003003F5FA63B3F5FD6F03D33446B6
:10389400204604B070BD064A02A8064934460AF020
:1038A40087FB02A928460AF055FAF1E7F4890020BB
:1038B400200900202C09002003790BB91846704711
:1038C40030B583B00D460146144668460AF0B2FA94
:1038D4009DF80320AA422CBF01230023A24228BF43
:1038E4000023184603B030BD10B50446007986B0F5
:1038F40008B906B010BD0A98DBB2D2B2C0B289B220
:1039040002900998C0B201900898C0B2009004A82F
:103914000AF038FB04A920460AF01CFA06B010BDD0
:10392400037903B9704710B582B00446054A0649C5
:1039340068460AF03DFB694620460AF00BFA02B0DD
:1039440010BD00BF200900202C090020037910B508
:103954000C4690B053B3014606A80AF06BFA9DF8E2
:103964001D109DF81C209DF81830CDE903219DF809
:103974001B1003F5FA639DF81A20CDE901219DF887
:103984001910104A009120210DEB01000FF06EF97F
:1039940008A810F07DFF2368024608A95B6820464A
:1039A400984720460BF0A6FB10B010BD0B680F2201
:1039B400054920465B689847204610B0BDE8104092
:1039C4000BF098BB48090020380900200068002249
:1039D4000368DB69184700BF10B514469EB01A4649
:1039E4000B460094302101920446104A02A80FF0BD
:1039F4003DF92F2818D850B102AA002302EB000C7D
:103A040012F8011B944583EA0103F9D11846084AC8
:103A140002AB402100900EA80FF028F9024620685E
:103A24000EA90468636898471EB010BD0008002002
:103A3400080800202DE9F843002580460F46061D9E
:103A4400D8F8000003681B699847002860D0D8F8AC
:103A5400000003685B699847C3B2232B0FD098F822
:103A64004840002CECD00A2B0FD0D8F844203E2A32
:103A740049DC511C4244C8F844101371E0E70123A7
:103A8400C8F8445088F84830DAE7D8F844302A2196
:103A9400304643441D7188F8485010F0A3FBD8B356
:103AA400A0EB0609C8F84450B9F1010FC8DD102293
:103AB4000130002110F012F908F10303C0B2002212
:103AC40003EB090C13F8011F9C4582EA0102F9D1AA
:103AD4009042B5D1A9F1020998F8043008F1060121
:103AE400B81CB9F1270F3B7098F80530A8BF4FF008
:103AF40027097B704A464F440BF056FF00232046AB
:103B0400BB70BDE8F88388F84850C8F8445097E77C
:103B140004462046BDE8F883C8F8440090E700BF97
:103B240030B5094C83B00220E51C012101900BF053
:103B3400FBFE019800210BF0BBFEAC4202D014F84E
:103B4400010FF2E703B030BDF40800200F2917D8A5
:103B5400022010B50C46C1F3C7010BF0A9FE0320E7
:103B6400C4F380010BF0A4FEC4F3400104200BF065
:103B74009FFE04F001010520BDE810400BF098BE43
:103B8400704700BF00207047704700BF036D0BB142
:103B940001207047406D003818BF0120704700BFF6
:103BA40010B50446806D18B10EF0A4FB0023A36584
:103BB400236D2BB104F11800BDE8104007F074BC6C
:103BC400636D002BF6D110BDF0B595B000224FF413
:103BD4007A74244F1831054604A88DF80C200097F8
:103BE400CDE90124CDE9122207F0CAFC129B002B77
:103BF4002DD05C2000260BF071FF019B044646602B
:103C0400C36004A9029B183040F8083C9DF80C30AE
:103C140000F8043C144B40F8183C144B40F8103C9A
:103C240007F000FC124B4FF47A72A7602B606368B4
:103C3400A66501336E602E73AA602C6163600D4B20
:103C440004A8009307F030FC284615B0F0BD139B80
:103C5400002BCED1064A2B732A602B61C5E90134AF
:103C6400EDE700BF3C0B0020600B0020BC0B0020E4
:103C7400100B0020C009002010B50446806D00B16F
:103C840010BD4FF480700EF02DFBA065B0B1002282
:103C9400236D02703BB101464FF48072184607F061
:103CA40053F8A06D10BD636D002BE9D001464FF4AD
:103CB4008072184604F0F6FCA06D10BD014B184646
:103CC400A36510BDB2AB002038B5056D6DB10BB165
:103CD400002038BD1146284605F072FD0028F7D0B3
:103CE4002846BDE8384005F00DBF446D002CEFD0E8
:103CF400204603F029F90028EAD02046BDE83840E0
:103D040003F09CBF8A79A2F150031B0622D402F26D
:103D14006C72F0B54B7985B0046D01330D798E78F2
:103D24004F78DBB209784CB1204601960095CDE975
:103D34000271022105F07AFE05B0F0BD406D002845
:103D4400FAD001960095CDE90271022103F0BAFE82
:103D540005B0F0BD0020704710B50446006D80B179
:103D6400037813F0700F00D110BD002105F028FD79
:103D7400606D0028F8D000220023BDE8104003F055
:103D8400E3B8606D0028EFD090F8313013F0500F95
:103D9400EAD000220023BDE8104003F0D5B800BFEC
:103DA400036D10B50C4682B02BB30DF1060201A9C8
:103DB400184605F0ABF838B3BDF80430BDF806205A
:103DC40053EA020120D0C2F3451C02F01F00D20ABC
:103DD400C3F34311400084F801C0A2705A0A0139A8
:103DE40003F01F0302F5EA62207001206171237160
:103DF400A27102B010BD406D30B10DF1060201A9EF
:103E040002F048FF0028D7D1002002B010BD00BF47
:103E1400036D10B50C4682B02BB30DF1060201A957
:103E2400184605F063F838B3BDF80430BDF8062031
:103E340053EA020120D0C2F3451C02F01F00D20A4B
:103E4400C3F34311400084F801C0A2705A0A013937
:103E540003F01F0302F5EA622070012061712371EF
:103E6400A27102B010BD406D30B10DF1060201A97E
:103E740002F0FEFE0028D7D1002002B010BD00BF22
:103E84000369D3B10E4810B41C68E46884420FD1AE
:103E9400186D18B15DF8044B05F06EBE586D18B17D
:103EA4005DF8044B03F03CBF00205DF8044B704701
:103EB400184623465DF8044B18470020704700BF9E
:103EC40089180000006990B10368154A1B69934280
:103ED40025D1036D63B1187810F0080007D0D869B4
:103EE4005B69C01A48BF6FF00040704718467047BE
:103EF400436D002BFAD093F8310010F00800F6D08F
:103F0400186919685A69401A5B6862EB0303B0F1D7
:103F1400004F73F10003EAD36FF000407047184775
:103F240085190000036973B11A68084952698A4205
:103F340007D1186D08B105F0CFBA586D18B102F069
:103F4400EDBF184610474FF0FF307047B917000017
:103F5400036923B31968134A10B58C6882B094427C
:103F640014D1186D48B101220DF1070105F0E0F9F3
:103F740090B19DF8070002B010BD586D0028F8D02C
:103F840001220DF1070102F0F9FEF1E701220DF122
:103F940007011846A047EBE74FF0FF30EBE74FF07F
:103FA400FF30704711180000036963B11A680749AC
:103FB40092698A4208D1186D08B105F031BD586D77
:103FC40008B103F009BC7047184610476118000097
:103FD400036D13B1586900217047436D13B1D3E9E0
:103FE4000001704718461946704700BF036D13B1AE
:103FF400D86900217047436D13B1D3E904017047B8
:1040040018461946704700BF036D13B1184605F0F2
:1040140063BA406D08B102F081BF4FF0FF307047C2
:10402400836C13B1184605F057BAC06C08B102F09E
:1040340075BF4FF0FF307047036D33B11B7813F039
:10404400700F14BF012000207047406D30B190F80C
:10405400313013F0500F14BF01200020704700BF0F
:10406400036D13B1184605F063B9406D08B102F051
:1040740085BE4FF0FF307047836C00B583B063B1E9
:1040840001220DF10701184605F052F901280CD15F
:104094009DF8070003B05DF804FBC06C28B1012251
:1040A4000DF1070102F06AFEF0E74FF0FF30F1E78F
:1040B400036D13B1184605F0B3BC406D08B103F0AD
:1040C4008BBB7047836C13B1184605F0A9BCC06C58
:1040D40008B103F081BB7047036D13B1184605F0B6
:1040E4004BBD406D08B103F01BBE7047836C13B128
:1040F400184605F041BDC06C08B103F011BE70470D
:1041040000B5836C83B08DF8071043B101220DF123
:104114000701184605F030FD03B05DF804FBC06CE0
:104124000028F9D001220DF1070103F0F9FD03B0D5
:104134005DF804FB8A79A2F150031B0622D402F233
:104144006C72F0B54B7985B0046D01330D798E78BE
:104154004F78DBB209784CB1204601960095CDE941
:104164000271042105F062FC05B0F0BD406D002829
:10417400FAD001960095CDE90271042103F0A2FC66
:1041840005B0F0BD00207047836C53B1187810F06F
:1041940008000DD0D8695B69C01A48BF6FF00040B1
:1041A4007047C36CA3B193F8310010F0080000D13C
:1041B4007047186919685A69401A5B6862EB03030F
:1041C400B0F1004F73F10003F2D36FF00040704779
:1041D4001846EDE7036D53B1187810F008000DD0C0
:1041E400D8695B69C01A48BF6FF000407047436DDF
:1041F400A3B193F8310010F0080000D1704718699A
:1042040019685A69401A5B6862EB0303B0F1004F06
:1042140073F10003F2D36FF0004070471846EDE7E6
:1042240000B5006983B08DF8071060B10368104AC7
:10423400DB68934215D1036D43B101220DF10701EF
:10424400184605F099FC03B05DF804FB406D0028A6
:10425400F9D001220DF1070103F062FD03B05DF80E
:1042640004FB01220DF10701984703B05DF804FB3C
:104274008918000038B504460C4B806D236018B1D2
:104284000EF038F80023A365236D04F118054BB133
:10429400284607F009F9064B2846A36007F004F9FD
:1042A400204638BD636D002BF2D1F4E7600B00208B
:1042B400C009002038B504460E4B806D236018B148
:1042C4000EF018F80023A365236D04F118056BB1F3
:1042D400284607F0E9F8084B2846A36007F0E4F8FD
:1042E40020465C210BF0FCFB204638BD636D002B9F
:1042F400EED1F0E7600B0020C009002070B5044641
:1043040000F54E700AF056FC04F549700AF052FCB0
:1043140004F544700AF04EFC04F53F700AF04AFCC0
:10432400244A254B256BA2602362002D32D06E688F
:10433400013E6E6076BB2B68204ADB6A93422FD124
:10434400A86D10B10DF0D6FFAE652B6D23B305F14A
:10435400180007F0A9F8256BE5B12B68184A5B68CB
:10436400934224D1174BA86D2B6018B10DF0C2FFF6
:104374000023AB652B6D05F11806A3B1304607F099
:1043840093F8114B3046AB6007F08EF85C21284659
:104394000BF0A6FB204670BD6B6D002BD7D1DAE77E
:1043A40028469847D7E76B6D002BE7D1E9E7284605
:1043B4009847EFE7FC090020100B00205113000080
:1043C400651A0000600B0020C009002030B4029C74
:1043D40011469C4634B1012C1CD0022C0ED0002076
:1043E40030BC7047056DF5B14FF0FF33934274EB69
:1043F4000C04F4D3284630BC05F0E2B9026D0AB3CC
:10440400D36959184CF10003002BE8D1104630BC95
:1044140005F0D6B9026D62B1536959184CF1000325
:10442400002BDCD1F2E7406D0028D8D030BC02F07C
:104434008BBD406D0028D2D0D0E900238A184CEB04
:104444000303F3E7406D0028C9D0D0E9042330BC4E
:104454008A184CEB030302F077BD00BF70B5244B00
:10446400044605690360002D32D06E68013E6E601B
:1044740076BB2B681F4ADB6A93422FD1A86D10B11B
:104484000DF038FFAE652B6D23B305F1180007F06E
:104494000BF82569E5B12B68174A5B68934224D170
:1044A400164BA86D2B6018B10DF024FF0023AB65EB
:1044B4002B6D05F11806A3B1304606F0F5FF104B3D
:1044C4003046AB6006F0F0FF5C2128460BF008FB99
:1044D400204670BD6B6D002BD7D1DAE7284698478C
:1044E400D7E76B6D002BE7D1E9E728469847EFE75C
:1044F400100B002051130000651A0000600B00200F
:10450400C009002070B5264B044605690360002DE0
:1045140032D06E68013E6E6076BB2B68214ADB6A3E
:10452400934233D1A86D10B10DF0E4FEAE652B6D4E
:1045340043B305F1180006F0B7FF2569E5B12B6810
:10454400194A5B68934228D1184BA86D2B6018B1A7
:104554000DF0D0FE0023AB652B6D05F11806C3B139
:10456400304606F0A1FF124B3046AB6006F09CFFCC
:104574005C2128460BF0B4FA204614210BF0B0FA63
:10458400204670BD6B6D002BD3D1D6E728469847E3
:10459400D3E76B6D002BE3D1E5E728469847EBE7BB
:1045A400100B002051130000651A0000600B00205E
:1045B400C00900202DE9F0436D4F0022DFF8D081BF
:1045C40085B03B680446C0F8008002610281C26085
:1045D400002B00F0C8801A465B69002BFBD15461A4
:1045E400644B0025204604F51D7623604FF47A734E
:1045F40065612362604B6560A572E56184F82450AF
:10460400A562A361C4E9185500F0B0FF04F5237353
:10461400C4F88052C4F88C52C4F884324FF48073C6
:104624003D68C4F87482A4F87C32002D00F09D80AB
:104634002B461A465B69002BFBD156614F4A002377
:1046440004F52677C4F8742247F6FF72C4F888325A
:10465400A4F892224FF40042C4F87832A4F89422C9
:1046640004F52C7284F87E32C4F8A432C4F8B03253
:104674002B46C4F8A8224FF48072A4F8A0221A464C
:104684005B69002BFBD157610022C4F8AC32C4F83B
:104694009C3284F8A232C4F8C032C4F8D432C4E9DB
:1046A400B833374BC4F898320023C4E9AE2304F579
:1046B400387204F53273C4F8D8224FF40072A4F8A7
:1046C400D0222A466D69002DFBD1536118462D4A2C
:1046D40004F53D79C4F8DC5204F54278C4F8C822E4
:1046E400C4F8CC5284F8D252039300F00FFE264A49
:1046F4004846C4F8E8220A2284F8F0220AF08CF929
:10470400039B2A462146484600950AF0F9F940469B
:104714000AF082F9012204F54779039B21460092AD
:1047240040462A460AF0ECF904F54C7848460AF06B
:1047340073F933462A462146484600950AF0E0F9C3
:1047440040460AF069F93B462A4640462146009510
:104754000AF0D6F90D4B2046A4F84453C4F8483364
:1047640005B0BDE8F08338603AE735463E6065E75A
:104774004CA60020FC090020100B0020140A002085
:10478400080A0020F0090020F40A00209A99193F31
:10479400E40900200148FEF737BF00BFE09C002079
:1047A4000148FEF7EDBE00BFE09C002038B51B4C6D
:1047B400002504F108006570FFF7FCFE184B194A48
:1047C4001949C4F8B0231A68C4F86013FF211868A3
:1047D400C4F8C4231A68C4F8BC131968C4F858533D
:1047E40084F85C53C4F8A45384F8A85384F8AC53F5
:1047F400A4F8B453C4F8B85384F8C053C4E9F2021B
:104804001A6818681B68C4E9F412C4E9F603074A75
:1048140020460749BDE838400DF0C2B8E09C0020AE
:1048240074AB00202808002094890020208E0020EA
:10483400AD1A000010B5002104460AF0E1F8C8B131
:10484400031DB4F91EC0B4F9201000F5827E33F9BB
:10485400022B9445A8BF94469142B8BF11467345B4
:10486400F5D10123A4F81EC021842377BDE81040AC
:104874000AF07AB810BD00BF2DE9F041002180464E
:104884000AF0BEF8F8B100F1140100F58A7CD8E909
:10489400082351E9047651E90254C7FBC723C6FB38
:1048A400C623C5FBC523C4FBC42310316145F0D125
:1048B400D8F828100131C8E90823C8F82810BDE841
:1048C400F0410AF051B8D8F828300133C8F828303C
:1048D400BDE8F0810000000038B572B69FED127B90
:1048E4000023826AD0E90845836280ED087B62B6C2
:1048F400D201204629460DF023FB0DF0E3FA07EE22
:10490400900AF5EE407AF1EE10FA06D4B1EEE70A19
:10491400DFED077A80EE270A38BD00EE100A0DF0AD
:1049240013F8F5E7AFF3008000000000000000007A
:1049340000FEFF4610B504460AF0DCF9204610BD1F
:10494400024A034903480DF02BB800BF208E002013
:10495400E5200000D4A70020002070470020704705
:10496400F8B50127027A1E4C0D46BA40C1F307215F
:104974000646204684F8A52084F8307184F82F7107
:1049840009F0E8FCE9B2204609F0E4FC00212046E5
:1049940009F0B8FD08B10020F8BD3B460222317A87
:1049A400204609F02FFE0128F5D994F8A22094F8A6
:1049B400A300824210D2531CA118DBB2897E984214
:1049C4004FEA012184F8A23006D923440232987EAA
:1049D40084F8A2200843F8BD4FF0FF30F8BD00BFB3
:1049E400F4890020F8B50127037A144C242903FA2A
:1049F40007F30D4608BFC2801646C1F307212046BF
:104A040084F8A53084F8307184F82F7109F0A2FC81
:104A1400E9B2204609F09EFCC6F30721204609F0BE
:104A240099FC2046F1B209F095FC3946204609F07C
:104A340069FDB0FA80F04009F8BD00BFF489002098
:104A44002DE9F0414FF001080F461546302144F29C
:104A5400600280F804800446FFF7C4FF064610B9DC
:104A64003046BDE8F0816C2226212046FFF7BAFFCC
:104A74004FF4F97228212046FFF7B4FF40F6227262
:104A84002C212046FFF7AEFF44F246423C2120464B
:104A9400FFF7A8FF40F2371224212046FFF7A2FFB8
:104AA400002F6BD0454B342120469F428CBF424699
:104AB4000022FFF797FF07EE905A9FED417A3221CB
:104AC400B8EE676A07EE907A2046F8EE676AB5FB9F
:104AD400F7F2C6EE267A02F01F0206EE902AF8EEEE
:104AE400E66A77EEE67A67EE877AFCEEE77A17EE07
:104AF400903AC3F30A0343EAC222FFF773FF44F276
:104B0400FF5230212046FFF76DFF73220221204619
:104B1400FFF768FF4FF4C8700AF04CFE41F61D52CF
:104B24002E212046FFF75EFF072204212046FFF7CF
:104B340059FFB02206212046FFF754FF10220A2114
:104B44002046FFF74FFF00220E212046FFF74AFFC1
:104B540043F63C4210212046FFF744FF47F67F729C
:104B640022212046FFF73EFF362224212046FFF76C
:104B740039FF012330466372BDE8F08144F2FF023D
:104B840030212046FFF72EFF732202212046FFF733
:104B940029FF4FF4C8700AF00DFE41F61D522E2174
:104BA4002046FFF71FFF042220461146FFF71AFF95
:104BB400302206212046FFF715FFBFE740660301B8
:104BC4000000004510B50446084817F085FE05208E
:104BD4000AF0F0FD06212046FFF7C2FE2046044AF3
:104BE4000021BDE81040FFF72BBF00BFF48900206F
:104BF4000040C40A10B50446D1B1012901D00020F7
:104C040010BD40F273122A21FFF7ECFE0028F6D003
:104C1400882220212046FFF7E5FE0028EFD0E28815
:104C24002046242122F00402BDE81040FFF7DABE3A
:104C340055222021FFF7D6FE0028E0D0E288204646
:104C4400242142F00402BDE81040FFF7CBBE00BFB0
:104C540038B5054611B380290CD8C1F180042B79ED
:104C640044EA042453B9224628462221BDE83840A8
:104C7400FFF7B8BE2B790024002BF4D0EA88002378
:104C84002421284622F010022B71FFF7ABFE2246A6
:104C940028462221BDE83840FFF7A4BE012347F689
:104CA4007F7222210371FFF79DFEEA8828462421A2
:104CB40042F01002BDE83840FFF794BE9FED1F7A22
:104CC400DFED1F7AE0EE077A38B50546FCEEE77AA9
:104CD40017EE904A14B3802C0CD8C4F180042B79BD
:104CE40044EA042453B9224628462221BDE8384028
:104CF400FFF778BE2B790024002BF4D0EA88002338
:104D04002421284622F010022B71FFF76BFE224665
:104D140028462221BDE83840FFF764BE012347F648
:104D24007F7222210371FFF75DFEEA882846242161
:104D340042F01002BDE83840FFF754BE00000143C2
:104D4400EE7CFF3E30B482B00C4602AB03E90600B1
:104D5400C37C002B30D072B6C37CDA0708D54FF081
:104D6400E0214569D1F880212A408262C1F880217E
:104D74009D0708D54FF0E0218569D1F884212A40A8
:104D8400C262C1F88421590708D54FF0E021C569F2
:104D9400D1F888212A400263C1F888211A0708D56E
:104DA4004FF0E021056AD1F88C212A404263C1F812
:104DB4008C21DB062FD462B683689C4235D0224B0B
:104DC40084609B69214AC3F30111C3F3826352F8DF
:104DD40021100133B1FBF3F2CCB1944227D8B2FBDA
:104DE400F4F3B2FBF3F294422CD3B3F5817F20D3D6
:104DF400174CC460036803220020019918615A62A9
:104E040001221C6419661A6102B030BC70479942D1
:104E1400EFD3531CE9E74FF0E022416AD2F8903116
:104E24000B408363C2F89031C5E7C468E2E700240D
:104E3400DFE7022BFBD9023B5A08140244EA02447E
:104E44001C43D6E71A46E4E700C00F40B80C002024
:104E5400FF7F7F00024A034903480CF0A1BD00BF55
:104E6400208E0020E520000050A70020024A0349BC
:104E740003480CF095BD00BF208E0020E520000003
:104E8400C8A60020024A034903480CF089BD00BFAC
:104E9400208E0020E5200000E0A60020024A0349FD
:104EA40003480CF07DBD00BF208E0020E5200000EB
:104EB40058A70020024A034903480CF071BD00BF03
:104EC400208E0020E520000060A70020024A03494C
:104ED40003480CF065BD00BF208E0020E5200000D3
:104EE40078A70020024A034903480CF059BD00BFCB
:104EF400208E0020E5200000D0A60020024A0349AD
:104F040003480CF04DBD00BF208E0020E5200000BA
:104F1400E8A60020024A034903480CF041BD00BF43
:104F2400208E0020E520000068A70020024A0349E3
:104F340003480CF035BD00BF208E0020E5200000A2
:104F4400D8A60020024A034903480CF029BD00BF3B
:104F5400208E0020E5200000F0A600202DE9F04F6F
:104F640000F5807EB1E8A00AB2E84015C5EA064320
:104F7400C6EA2544C7EA0845C8EA2746C9EA0A47F3
:104F8400CAEA2948CBEA0C49CCEA2B4AA0E8F8073C
:104F94008645E7D1BDE8F04F70474FF000022DE998
:104FA400F00F00F5807C00BFB1E8A00AC5EA020357
:104FB400C2EA2544C7EA0205C2EA2746C9EA02074B
:104FC400C2EA2948CBEA0209C2EA2B4AA0E8F80758
:104FD4008445E9D1BDE8F00F70474FF000022DE998
:104FE400F00F00F5807C00BFB1E8A00AC2EA0543D7
:104FF400C2EA0504C2EA0745C2EA0706C2EA09474B
:10500400C2EA0908C2EA0B49C2EA0B0AA0E8F80797
:105014008445E9D1BDE8F00F70472DE9F00F089CF5
:1050240000F5007B51F8045B53F8046BC5EA0647AE
:10503400C6EA254952F8045B54F8046BC5EA0648ED
:10504400C6EA254AA0E880078345EBD1BDE8F00F06
:10505400704700BF2DE9F84F454B464C1868197945
:1050640004F580750368444AAB42D1770BD2434BB5
:105074001B78002B4BD04FF0E02340222C4605F543
:105084008075C3F808223E4BDFF804A1D3F80080F2
:10509400DFF800913B4BBAF80060D3F800B0B9F8E0
:1050A4000070B8F1000F4FD0BBF1000F21D1B8F15F
:1050B400000F49D008F10401204601EB46014036B7
:1050C400FFF76BFFBFF34F8F4FF0E022C2F8704F32
:1050D4002034AC42FAD3BFF34F8FBFF36F8F7F2ED0
:1050E40026D8AAF800607F2F15D8A9F80070BDE86B
:1050F400F88F0BF1040208F10401204602EB470289
:10510400403701EB46014036FFF728FFDAE72C462B
:1051140005F58075B7E700245846A9F8004009F062
:1051240023FC194B1A681C60164B1A60BDE8F88FF3
:1051340000244046AAF8004009F016FC134A104B1C
:10514400116814601960CEE7BBF1000F08D00BF1B1
:105154000401204601EB47014037FFF73EFFB1E76A
:105164004FF48072594620460EF0EAFFAAE700BFCA
:1051740008A70020003D202000800E40AEAB002098
:10518400F8A6002000A7002004A70020FCA6002009
:105194009CAB00209EAB002038B50021044609F0EA
:1051A4002FFC88B172B61C4A1368002B2BD01B4904
:1051B4000D68002D2CD0156008600021184A11805C
:1051C40062B6184609F0D0FB0121204609F018FC0C
:1051D40098B172B6134A136883B113490C6854B179
:1051E40014600024114A0860148062B61846BDE8B1
:1051F400384009F0B9BB086062B638BD0B4910608D
:105204000B8062B638BD064910600B8062B6DBE7DE
:10521400086062B6D8E700BFF8A60020FCA600200C
:105224009CAB002000A7002004A700209EAB002018
:10523400F8B52D4C05462D4AE36F43F44023E3674C
:105244009368002B46DBD2F88830002B42DB002326
:1052540042F210724FF40C611C2017F041FBE36919
:10526400234A23F44063234943F40063E361A36ABC
:105274001A40214B42F0CE02A2624A68134043F422
:1052840000234B602DB91D4B0322C3F82021C3F822
:1052940024211A4E0327154B0124C6F82871002532
:1052A4004FF480301649174A174E1D66DC601E61A4
:1052B40058619961DA61C3F8E050C3F88C4004F195
:1052C400E064C3F89040C3F89400C3F89810C3F89E
:1052D4009C20F8BD002DFCD1084B0322C3F82021EB
:1052E400C3F82421F8BD00BF00C00F40004038407F
:1052F40000FEFFFF00C00A40F8FFF7FF00801F40D8
:105304001B1F0100001F1F1F0100004770B5264D21
:1053140000240121254E284609F088FC244A254B07
:10532400204614601C60FFF783FF234B0321234AAC
:105334000220C3F880112B6821491A604FF480724F
:105344009C61DA82DA8306229C829A831D4ADE609B
:105354001A61C3E9011029791B480FFA81FC1B4B20
:1053640040F82C4040F82C30194B1A48D976D2F822
:105374006630194C43F01043C2F8663042F81A0CF8
:1053840009F032FC2A79154B0121207002F110003A
:1053940003EB521302F01F02114C91409B00114A7F
:1053A40042F82040196070BD08A7002000FEFFFFEE
:1053B400F8A6002000A7002000801F40003D202008
:1053C400020001012240384000C00E401400008059
:1053D40000800E4001000090AEAB00204038003841
:1053E4000528000000980020024A034903480CF0F5
:1053F400D7BA00BF208E0020E520000008A70020B7
:10540400024A034903480CF0CBBA00BF208E0020A7
:10541400E520000040A70020024A034903480CF09D
:10542400BFBA00BF208E0020E520000080A7002026
:10543400024A034903480CF0B3BA00BF208E00208F
:10544400E520000088A70020024A034903480CF025
:10545400A7BA00BF208E0020E5200000A8A70020E6
:10546400024A034903480CF09BBA00BF208E002077
:10547400E520000010A70020024A034903480CF06D
:105484008FBA00BF208E0020E520000090A70020E6
:10549400024A034903480CF083BA00BF208E00205F
:1054A400E5200000B0A7002010B5054C04F1080069
:1054B40009F020FC2046BDE8104009F01BBC00BFE9
:1054C40018A7002010B5084C0021204609F0AEFBB7
:1054D40004F10800002109F0A9FB044A0449002052
:1054E400BDE810400CF05CBA18A70020208E002004
:1054F400592C0000024A034903480CF051BA00BF7A
:10550400208E0020E520000070A70020024A0349F5
:1055140003480CF045BA00BF208E0020E5200000AF
:1055240098A70020024A034903480CF039BA00BF87
:10553400208E0020E5200000A0A70020024A034995
:1055440003480CF02DBA00BF208E0020E520000097
:1055540028A70020024A034903480CF021BA00BFDF
:10556400208E0020E520000048A7002038B504461E
:105574000E23006E002584F86F3284F8703265655E
:1055840010B109F0F1F92566606E18B109F0ECF973
:105594000023636638BD00BF4FF0E022D2F8083123
:1055A40013F040032DE9F041044608D04023C2F82B
:1055B400883190F86F320E2B6ED0012504E090F8FC
:1055C4006F220E2A6DD01D460023D4E91806C4E9C3
:1055D40018330E2384F86F3208B109F0C5F916B1F7
:1055E400304609F0C1F9A66A002E49D03368DFF8C5
:1055F400F480DB6A43455AD1B06D18B10CF07AFEE1
:105604000023B365336D002B4DD006F1180005F06F
:105614004BFFA76A7E68013E7E60002E2ED13B6858
:10562400DB6A43454AD1B86D10B10CF063FEBE6528
:105634003B6D002B3ED007F1180005F035FFA66A3C
:10564400E6B13368224A5B6893423ED1214BB06D88
:10565400336018B10CF04EFE0023B365336D06F1D0
:10566400180773B3384605F01FFF1B4B3846B36069
:1056740005F01AFF5C2130460AF032FA0023A362D7
:10568400164A13881BB1013B9BB213801BB94621F8
:10569400134800F0A1FE25B14FF0E0234022C3F8E7
:1056A4000821BDE8F081736D002BAED1B1E730461F
:1056B4009847AEE77B6D002BBDD1C0E738469847CD
:1056C400BDE7736D002BCDD1CFE730469847D5E7C2
:1056D400651A0000600B0020C009002090AB002078
:1056E40034890020511300002DE9F04796B0064696
:1056F4000C46FFF751FF4FF0E023D3F8085115F0A3
:10570400400503D040220125C3F88821DFF8E08159
:1057140046216F4800F04CFEB8F8003022466D492F
:10572400013302A8A8F80030002305F0D7FF149B2A
:10573400002B00F0A9805C2000270AF0CFF9039B1E
:1057440004464760C36006A9049B1830DFF8A4919F
:1057540040F8083C9DF8143000F8043C5E4B40F8D7
:10576400183C5E4B40F8103C05F05CFE6368A7658E
:1057740006A80133CDF808906360594BA36005F087
:1057840093FEB76A002F54D07B68013B7B60019382
:10579400002B32D13A685349D26A8A4240F08D8054
:1057A400B86D18B10CF0A6FD019BBB653B6D002BD9
:1057B4007ED007F1180005F077FEB76AEFB13B68B9
:1057C400494A5B6893427FD1434BB86D3B6018B143
:1057D4000CF090FD0023BB653B6D07F1180A002B0C
:1057E4006ED0504605F060FE5046C7F8089005F0AC
:1057F4005BFE38465C210AF073F9B4621CB323687B
:105804003A4A1B6B93421AD1236D002B4CD00023D0
:1058140014214FF00062A6F86A320E237165C6F8AF
:105824006C2286F8703235BB0125284616B0BDE8D7
:10583400F08723682D4A1B6BB4629342E4D0204660
:1058440098470028E3D1B8F8003023B1013B9BB25C
:10585400A8F800301BB946211D4800F0BDFD002DFD
:10586400E3D000254FF0E02340222846C3F8082166
:1058740016B0BDE8F0874FF0E02340222846C3F875
:10588400082116B0BDE8F087159C002C7FF453AFB7
:10589400DFF8609006A8CDF8089005F005FEB76A19
:1058A400002F7FF471AFCEE7636D002BAFD1CAE751
:1058B4007B6D002B7FF47DAF7FE7384690477CE714
:1058C4007B6D002B8DD18FE73846984795E700BF55
:1058D40034890020CCA00020600B0020BC0B0020E9
:1058E4003C0B002051130000651A00003D1300001A
:1058F40090AB0020C0090020C26A91B2012912D1E4
:10590400016B03464AF64440814210B40DD045F27F
:105914002260814225D042F6113081421ED00020FF
:105924005DF8044B7047002070470F4C0021120CA7
:10593400012A04D0022AF2D1640841F001015A8FED
:10594400082A04D0102AEAD1640841F0020183F83D
:1059540070120120DC655DF8044B7047034C042190
:10596400E5E7034C0421E2E7BC13CE05F24E3817F9
:1059740079279C0B2DE9F04FB0F86A3200F16A06E2
:1059840083B006EB030B09B304460D4608274FF416
:105994002068DFF864A3DFF8649394F86F320E2B69
:1059A40000F22D81DFE813F012001200F100D8009C
:1059B4001200120012001200A00073003C002B0021
:1059C40016002B011200002B00F0D880002003B039
:1059D400BDE8F08F626D2B46B4F86A12954228BF79
:1059E40013461944D21AA4F86A1240F07781ED1ACA
:1059F4009B44676584F86F72002DCED1E6E7626D33
:105A0400AA4200F26D81B4F86A329344AD1A676514
:105A14001A44A4F86E82A4F86A22002DBDD1D5E7F9
:105A2400626D04F12C0094F86E325946AA4218446F
:105A340028BF2A46019209F0B7FF019A94F86E3202
:105A4400134484F86E32B4F86A321344A4F86A3208
:105A5400636D9B1A6365002BB8D1E16A9344AD1A58
:105A6400226B5145626540F0D38084F8713294F81A
:105A7400703284F86F32DB0705D508F01FFF6066CB
:105A84000028A3D0626DA265002D86D19EE7626DC9
:105A940004F12C0094F86E325946AA42184428BFE7
:105AA4002A46019209F080FF019A94F86E32134459
:105AB40084F86E32B4F86A321344A4F86A32636D1F
:105AC4009B1A6365002B81D12046FFF715FF002840
:105AD40000F09580019A6765AD1A9344A4F86E822C
:105AE400002D7FF45AAF71E7626D04F12C0094F835
:105AF4006E325946AA42184428BF2A46019209F038
:105B040053FF019A94F86E32134484F86E32B4F859
:105B14006A321344A4F86A32636D9B1A6365002BDE
:105B24007FF454AFE36A4B4569D1636B71498B428F
:105B340065D101F15B41A36B01F5F11101F60F4150
:105B44008B426CD1E36BA3F11001182957D84FF4A1
:105B54001061A4F86E1267E0626D94F871129542B8
:105B640028BF1546521B6265002964D1023DBBF86B
:105B7400007040F08280002A40F0AA800E230020AA
:105B840084F86F3203B0BDE8F08F636D216E9D42DF
:105B9400B4F8682028BF1D465B1B636502E0002D36
:105BA4003FF411AFBBF90000571C01EB4202023D68
:105BB400A4F868700BF1020B9080B4F868207F2A77
:105BC400EDD90022204608F0F7FE0122216E20467E
:105BD40008F0F2FE206E08F0C7FE0022ABEB0603CD
:105BE400606E2266626DA4F86A321544656510B170
:105BF40008F0BAFE656D002D63D00120E7E60E23A0
:105C0400002084F8703284F86F3203B0BDE8F08F5E
:105C14000B2384F86F32002D7FF4BFAED6E640F636
:105C24000C43A4F86E32E36BAD1A93446365002D04
:105C34007FF4B3AECAE6216EB4F86800E76A01EBFC
:105C440040008780002084F87102B4F86800D846C8
:105C5400676E023D38F9023B07EB40070130A4F8B8
:105C64006800BB80B4F868307F2B0FD875BB002A5E
:105C740084D0284684F87152A9E6216E0BF1020BF8
:105C8400B4F8680001EB40008780DEE7002220467C
:105C9400002708F091FE206E08F066FE0122616E76
:105CA4002046276608F088FE606E08F05DFE626D8F
:105CB400A8EB060367662A44A4F86A326265002AE0
:105CC4009BD10E23012084F86F3280E6C3464DE752
:105CD40002232846E76284F8713278E6626575E645
:105CE400B4F86A32521B00202B446265A4F86A326D
:105CF4006DE600BF5741564564617461524946469A
:105D040090F86F320D3B012B40F2BC802DE9F0413D
:105D1400044608F0D3FD2066002800F0AC8094F817
:105D24006F32072B02D8DD0700F1AD8000236366D4
:105D3400B4F86C120023B4F86A22A4F86830891A03
:105D4400994200F3068194F86F320E2B00F0B38071
:105D5400A56A002D44D02B68A2491A698A4240F0F2
:105D640030812A6D002A00F006811178080740F17D
:105D7400A680D1695269891A40F1128104F16A0737
:105D8400994E4FF6FF784DB32B689B68B34240F0B1
:105D9400E780286D002800F081804FF400723946B6
:105DA40003F0C6FA83B2A4F86C32002B00F08380AF
:105DB400002381B2204694F86F52A4F86A32FFF7A8
:105DC400D9FD94F86F32002873D10E2B73D0072DB0
:105DD40014D9072B12D8A56A002DD5D1A4F86C527A
:105DE400824A1388002B48D0013B9BB21380002BBE
:105DF40043D00E2384F8703284F86F32256EFDB1DF
:105E0400B4F86800B8B17F2808D8C0F18002023025
:105E14000021520005EB40000EF092F900222946C1
:105E2400204608F0C9FD94F86F32072B02D8DB072F
:105E340040F1BA80256E284608F096FD00232366BB
:105E4400656EC5B1B4F8680080B17F2808D8C0F188
:105E5400800202300021520005EB40000EF070F980
:105E640029460122204608F0A7FD656E284608F061
:105E74007BFD00236366BDE8F08146215C4800F0A9
:105E8400ABFAB6E7704708F019FD606600287FF4A6
:105E94004FAF206EBDE8F04108F066BD686D002884
:105EA40000F0B0804FF40072394600F067FF83B20F
:105EB40079E70E2BDFD1A56A002D91D02B68DB6A20
:105EC4004C4FBB427AD1A86D18B10CF013FA0023E1
:105ED400AB652B6D002B4AD005F1180005F0E4FAF0
:105EE400A66A7568013D7560002D2FD13368DB6AA1
:105EF400BB4271D1B06D10B10CF0FCF9B565336DD6
:105F0400002B65D006F1180005F0CEFAA56AEDB1B4
:105F14002B68394A5B68934261D1384BA86D2B607A
:105F240018B10CF0E7F90023AB652B6D05F11806E9
:105F3400002B3FD0304605F0B7FA314B3046AB600A
:105F440005F0B2FA5C21284609F0CAFD0023A362D9
:105F540046E72046FFF70EFD00283FF4F4AE8AE73B
:105F640028464FF400723946984783B21BE76B6D9D
:105F7400002BB1D1B4E76A6D002AA0D092F8311099
:105F840009079CD510681169091A5069526860EBB9
:105F94000202B1F1004F72F1000201D36FF000412F
:105FA40000297FF4EBAE8AE70122216E204608F037
:105FB40003FD3FE76B6D002BBCD1BEE72846984735
:105FC4008EE728469047A56A00287FF4D7AE73E78A
:105FD400736D002B96D199E73046984796E728468B
:105FE4009847B3E7851900001118000090AB002012
:105FF4003489002051130000651A0000600B002052
:10600400C00900204FF0FF30A4F86C82D0E600BF36
:1060140090F86F0207288CBF00200120704700BF52
:1060240090F81CC04160BCF1020FC26001D18368CA
:10603400184708F079BE00BFF0B4046840F20125A7
:106044001E462561A3B121B311F8015B013B6566CE
:10605400256FAF0707D41546013E676F1AB105F8DF
:10606400017B2A4604686569ED07F1D5002BEAD166
:106074006EB10368196F8907FAD41146013E5B6F4C
:10608400002AF5D001F8013B0A46002EF1D1F0BCFC
:10609400704790F83C50D9E7324B334930B5D3E9D7
:1060A40011542079C8771A6C95F804C081F81CC083
:1060B400087752B1B2F5004F23D32C4911442A4A30
:1060C4001964D07682F81BC030BD19680F24D86CCF
:1060D4008C6540F20134CA610C614FF47C544C610C
:1060E40003210468246883F83D10214B9C4226D187
:1060F400037F4260022BC26026D18368BDE8304032
:1061040018472D68E98B090422D492B2EA832168E6
:10611400EC8BA4B2EC82CC8B240405D5CC8BC2F3DB
:10612400080204F47E442243CA83CA8B92B2CA8210
:1061340000210D4A1964D07682F81BC030BD234675
:106144001146BDE830401847BDE8304008F0ECBDCA
:10615400E98BC2F3080E92B201F47E4141EA0E01CA
:10616400E983D4E73489002000800E400180FFFFDA
:10617400D137000043682DE9F04FD3E90041814D48
:106184004FF0B80A22684FF0020822EA01027E4961
:106194002260AA6911407D4A0A43AA6190F810E07E
:1061A4007B4A03EB0E0603EB8E0E317C02EB0111EE
:1061B4008968C1F800A090F811C003EB0C0503EB4B
:1061C4008C0C95F8201002EB01118968C1F800A02D
:1061D400817C03EB010903EB810199F830B002EBF8
:1061E4000B1BDBF808B0CBF800A0D4F800A05F6864
:1061F4004AEA070AC4F800A0347CDEF814E002EB93
:1062040004146468C4F800E095F82040DCF824C065
:1062140002EB04146468C4F800C0496B99F8304078
:1062240002EB041252681160DA6B99F838101160AD
:10623400DA69317EDB6A116095F828201A600F2232
:106244000368C3F810809A65C27C002A31D072B604
:10625400C37CDC0708D54FF0E0214469D1F88021E4
:1062640022408262C1F88021990708D54FF0E021CD
:106274008469D1F884212240C262C1F884215A077A
:1062840008D54FF0E021C469D1F888212240026387
:10629400C1F888211F0708D54FF0E021046AD1F81E
:1062A4008C2122404263C1F88C21DE0655D462B6AB
:1062B4000368384C8268A24259D0324A8460926999
:1062C4003549C2F30116C2F38262344D51F82610E7
:1062D4000132B1FBF2F2AA4231D80022C26000249A
:1062E40003211C610724596201211A641C66196187
:1062F400C37C13B3DD0704D5816A4FF0E022C2F8F2
:1063040000119C0704D5C16A4FF0E022C2F80411C1
:10631400590704D5016B4FF0E022C2F808111A079F
:1063240004D5416B4FF0E022C2F80C11DB0604D512
:10633400826B4FF0E023C3F81021BDE8F08F1849B9
:10634400A1FB0251090DB2FBF1F2A24288BF013157
:10635400B1F5817F0DD3134AC0E74FF0E022416AC3
:10636400D2F890310B408363C2F890319FE7C26842
:10637400B5E70229B1D902394C08220242EA0442A3
:106384000A43ABE700C00F40CFFFFFE31000000853
:10639400047B002000093D00B80C0020FF083D00EC
:1063A40083DE1B43FF7F7F00704700BF704700BF41
:1063B4009F290FD84B09012201F01F0102FA03FCA7
:1063C40000EB83038A40C17C41EA0C01C174596922
:1063D40011435961704700BF9F2918D8012200B5A5
:1063E4004FEA511E01F01F0100EB8E0C02FA01F17D
:1063F400DCF8143023EA0103CCF814302BB9C37C45
:1064040002FA0EF223EA0203C3745DF804FB704738
:106414000BB1FFF711BE70474368D3E90012096856
:10642400114200D1704710B50268044600200521CE
:106434001061227C1344187C09F076FA627C63684C
:106444000521134493F8200009F06EFA6368A27CD6
:1064540005211344BDE8104093F8300009F064BAF4
:1064640000207047704700BF30B583B005460C4626
:1064740009F0F0FC1C4B984204D800232B802380A5
:1064840003B030BD694608F019FF9DF805309DF84A
:10649400062001339DF80410503ADBB292B21F2952
:1064A40098BF0C2B01D87F2A18D900219DF802200F
:1064B4009DF801302980172A98BF3B2B9DF80010C6
:1064C40001D83B2903D90023238003B030BD5B01ED
:1064D40043EAC22343EA51039BB2F5E741EA43117D
:1064E40041EA422189B2E1E7FFA5CE1210B5044684
:1064F40040F2D44109F0F4FA204610BD012BF0B566
:10650400054695B03DD0022B40F2022001F1040172
:106514000CBF03460023684605F0E0F8129B002BED
:1065240038D05C20002609F0D9FA214B04AF044688
:10653400C0E90036019B3946183040F80C3C1D4B2D
:1065440040F8103C029B40F8083C9DF80C3000F8E1
:10655400043C04F067FF184B4FF47A72A665A360FD
:10656400164B6E602B6063682E730133AA602C6136
:106574006360134B3846009304F096FF284615B029
:10658400F0BD44F202230431684605F0A7F8129BDB
:10659400002BC6D1139B002BC3D14FF47A71074A49
:1065A40004AF2B732A602B61C5E90131E1E700BF19
:1065B400600B0020BC0B00203C0B0020100B0020C3
:1065C400C009002010B5D0F884448EB00A4644B106
:1065D400002321466846009302F056FE80B90EB0AF
:1065E40010BDD0F8881441B1234668460C9400F0DD
:1065F40069FF50B900200EB010BD08460EB010BDA2
:10660400684603F095F80EB010BD684601F018F81E
:106614000028EFD0E3E700BF70B5D0F884548EB003
:1066240016465DB105F5896500230A466846294684
:10663400009302F0A7FD90B90EB070BDD0F88804A5
:106644000028F9D000F589640A462B46684621469D
:106654000C9500F0BBFE48B900200EB070BD324668
:106664002946684602F06EFF0EB070BD32462146E0
:10667400684601F039F90028EED0DDE710B5D0F80E
:1066840084448EB00A464CB1002001232146009078
:10669400684602F0F9FD80B90EB010BDD0F8881438
:1066A40041B1012368460C9400F00CFF50B900205E
:1066B4000EB010BD08460EB010BD684603F0EAFEE9
:1066C4000EB010BD684600F061FF0028EFD0E3E78C
:1066D40030B5D0F884448FB00A464CB1002501236C
:1066E40004F589616846009502F0D6FC0FB030BD10
:1066F400D0F888040028F9D000F5896101236846A0
:106704000C9401F073F90FB030BD00BF10B5D0F890
:1067140084448EB00A463CB1002321466846009367
:1067240002F0B2FD0EB010BDD0F8881431B123468A
:1067340068460C9400F0C6FE0EB010BD08460EB0BC
:1067440010BD00BFF8B5054690F8D00408B901465D
:10675400F8BDD5F88434002B4CD0DC69D5F890040E
:10676400013C002854D00368DB6B9847E0B1D5F8AE
:10677400900478B303681B6C9847A8B9D5F89004C3
:1067840040B3036801215B6C9847074610B3D5F802
:10679400840458BBD5F8886433466EB9D5F89004A0
:1067A40090B900200146D3E7D5F88404E8B9D5F8B8
:1067B4008834002BF5D00746184602F0EBF906465C
:1067C4003FB1D5F8900428B1036800215B6C984769
:1067D40000B1A41BD5F88434FBB19B794FF400714C
:1067E400994089B2A1FB0401F8BD002704F0A4FC80
:1067F4000646E5E7D5F88834D5F89004B3B1D3F864
:1068040030440028AFD1184602F0C4F90646E0E748
:10681400184604F091FC0646DBE7D5F88864002EA0
:10682400BFD0D6F83C14A1FB0401F8BD0028B8D0B1
:106834001C4698E790F8D03463B1D0F8843463B13F
:106844009A794FF40070D9699040013980B2A0FB65
:1068540001017047184601467047D0F888040028A3
:10686400F9D0D0F83C14D0F83004A1FB00017047F3
:106874002DE9F043D0F890548DB04DB198462B6873
:1068840004462846DB699847B0F5405F064604D8BD
:10689400002630460DB0BDE8F0834FF400700BF0D5
:1068A40021FD07460028F3D00DF10409B6F1806FED
:1068B40002464346294648462ED901F037FC06468F
:1068C40038460BF017FD002EE2D02B682846271D12
:1068D4001B6A984794F8C034FF2B21D0D4F8C434F1
:1068E40004F5946502932846D4F8C8340393B4F8A5
:1068F400C034ADF8043099E80E0005F0B5FD94F805
:10690400B134C4F89054002BC3D10123294638462E
:106914001A4604F071FEBCE704F0D4F80646CFE74B
:1069240004F2944594F8CC14284606F0E5FB284676
:10693400C4F8905405F042FE0028AAD10123D4F8EB
:10694400901438461A4604F057FEA2E770B5D0F802
:10695400905484B00446002D40D090F8D03483B1D4
:1069640090F8D134FE2B6ED094F8D20427285AD94B
:106974002B68694628469B6C984784F8D00404B079
:1069840070BD90F8D134FE2B58D090F8D20427284B
:106994004FD994F8C034261DFF2B24D104F294451A
:1069A40094F8CC14284606F0A7FB2846C4F8905463
:1069B40005F004FE002864D00321262008F0B4FF6B
:1069C4003549364A364B48681268A3FB0232920CAA
:1069D40002EB82024B681B1A9A42FBD8002084F80F
:1069E400D00404B070BDD4F8C83404F59465D4F868
:1069F400C414B4F8C024284602936B460191ADF840
:106A040000200ECB05F030FD94F8B134C4F8905456
:106A1400002BD1D10123294630461A4604F0ECFD5F
:106A24000028DCD1C8E708F06DFF003818BF01204A
:106A3400D5E708F067FF0028ABD1CFE7194B9B6877
:106A44009B03CBD5A5E72B6828465B6D9847421C72
:106A54008AD0F8B994F8D134FE2BBFD10321262073
:106A640008F062FF0C490D4A0D4B48681268A3FBFD
:106A74000232920C02EB82024B681B1A9A42FBD838
:106A8400ACE70123D4F8901430461A4604F0B4FD60
:106A9400002891D00120A2E7001000E030890020F6
:106AA40083DE1B4300800042F0B50D46044685B0EA
:106AB400364806F0B3FFFE2D84F8D15426D0272D96
:106AC40002D9002005B0F0BD0026314B04F59467CF
:106AD4008DF80450C4F8C4348DF80560384684F841
:106AE400C05484F8C164C4F8C864CDE9023604AB68
:106AF40013E90E0005F0B8FC94F8B134C4F89074AE
:106B0400B3B3304684F8D00405B0F0BD04F2944524
:106B14000023FF221946284684F8CC3484F8C02484
:106B240006F0EAFA2846C4F8905405F047FD38B94F
:106B34000123D4F89014201D1A4604F05DFDF0B929
:106B440026200023032184F8D03484F8D20408F0EA
:106B5400EBFE1049104A114B48681268A3FB02323D
:106B6400920C02EB82024B681B1A9A42FBD8A8E7EC
:106B740001233946201D1A4604F03EFDC2E70122D6
:106B8400262384F8D02484F8D2349BE7193C0000EF
:106B940040787D01001000E03089002083DE1B4333
:106BA40018484FF0290C184A0023184910B4C0F8AB
:106BB4009424072280F8B1C44FF0FF0CC0F8A81445
:106BC4004FF47F41124CC0F8AC24124AA0F8D01400
:106BD400A0F89C3480F8B53480F8CC3480F8D2C462
:106BE4000460C0F8A0240C490C4A5DF8044BC0F8BA
:106BF4008434C0F88834C0F8903480F8BC340AF087
:106C0400CFBE00BFC8A00020400C002000093D00FA
:106C1400E00B00202C0A0020153C0000208E0020F0
:106C240070B500F1240384B08C46044601AD1646C9
:106C340093E8070085E807004FEA4C122946206ACA
