:0200000460009A
:100000004643464200000156000000000103030081
:1000100000000000000000000000000000000000E0
:1000200000000000000000000000000000000000D0
:1000300000000000000000000000000000000000C0
:1000400000000000010408000000000000000000A3
:100050000000200000000000000000000000000080
:100060000000000000000000000000000000000090
:100070000000000000000000000000000000000080
:10008000EB04180A063204260000000000000000FD
:10009000050404240000000000000000000000002F
:1000A0000000000000000000000000000000000050
:1000B0000604000000000000000000000000000036
:1000C0000000000000000000000000000000000030
:1000D00020041808000000000000000000000000DC
:1000E0000000000000000000000000000000000010
:1000F0000000000000000000000000000000000000
:10010000D8041808000000000000000000000000F3
:100110000204180804200000000000000000000095
:1001200000000000000000000000000000000000CF
:10013000600400000000000000000000000000005B
:1001400000000000000000000000000000000000AF
:10015000000000000000000000000000000000009F
:10016000000000000000000000000000000000008F
:10017000000000000000000000000000000000007F
:10018000000000000000000000000000000000006F
:10019000000000000000000000000000000000005F
:1001A000000000000000000000000000000000004F
:1001B000000000000000000000000000000000003F
:1001C000000100000010000001000000000000001D
:1001D000000001000000000000000000000000001E
:1001E000000000000000000000000000000000000F
:1001F00000000000000000000000000000000000FF
:10020000FFFFFFFFFFFFFFFFFFFFFFFFFFFFFFFFFE
:10021000FFFFFFFFFFFFFFFFFFFFFFFFFFFFFFFFEE
:10100000D1002043491600600000000000000000ED
:10101000201000600010006000600260000000000E
:1010200000000060006C020000000000FFFFFFFFF6
:10103000FFFFFFFFFFFFFFFFFFFFFFFFFFFFFFFFC0
:10104000FFFFFFFFFFFFFFFFFFFFFFFFFFFFFFFFB0
:10105000FFFFFFFFFFFFFFFFFFFFFFFFFFFFFFFFA0
:10106000FFFFFFFFFFFFFFFFFFFFFFFFFFFFFFFF90
:10140000814205D051F8043B40F8043B8242F9D8B0
:10141000704700BF044A05494FF0000342F8043BFF
:101420009142FBD8704700BFC0960020E0A7002083
:101430002DE98848BFF34F8F00BF00BF00BF00BF3A
:1014400000F0A2FE674B0822C3F8542100BF00BF82
:1014500000BF00BF00BF00BF00BF00BF00BF00BF94
:1014600000BF00BF00BF00BF00BF00BF5E4A5F49B2
:101470005F48FFF7C5FF5F4A5F496048FFF7C0FF5D
:101480005F4CFFF7C7FF4FF470004FF0E0210023DF
:101490005C4AC1F8880D44F823200133B02BFAD1FF
:1014A000594B8021594A03F8011B9342FBD14FF05D
:1014B000E0254C4E4FF08039DFF880B1DFF880A195
:1014C0004FF0FF31C5F8084D0027C6F80491C6F863
:1014D00000B1C6F8F490C6F8F0A0D5F8243DDFF8C6
:1014E000648143F4E0234A4AC5F8243DD8F81C300F
:1014F00023F07F0343F04003C8F81C30D8F82430B1
:1015000023F07F0343F04003C8F824309166D1668E
:101510001167516700F040FE3E4B3F49A3633F4BCC
:10152000E36363236B610323AF612B613C4BC5F81D
:10153000203DD5F8FC3D43F08073C5F8FC3D394BA8
:101540001A6842F001021A605B680B6000F0ACFEA2
:10155000C6F804913448C6F800B1C6F8F490C6F84D
:10156000F0A001F019F8D8F86C10304B304A41F473
:101570004051C8F86C101F60C3F80871C3F81871A7
:10158000C3F82871C3F83871936BDB0708D442F6AF
:101590001563284951651365936B43F00103936309
:1015A000234A254C936843F00113936000F0C2FD79
:1015B00001F002F800F0A6FE00F0E8FD2368132B0E
:1015C000FCD900F037FF2368B3F5967FFBD300F01A
:1015D000E1FD00F0DDFD00F0F3FF00F0D9FF30BFCA
:1015E000FDE700BF00800D4078A00100AC2800603E
:1015F00000000000C096002028C901600000002003
:1016000000940020D9D5000000E400E0A0E400E050
:1016100000C00A4055C5000070A7002059C5000051
:1016200000002020001000E00046C32300400840D6
:1016300000400D400000C05674A700201B10182069
:101640000C0D111300C00F40054B4FF42A01054A41
:1016500005485A641864054A99639546FFF7E8FE01
:1016600000C00A40FFAAAAAA070020000000062026
:101670001BB9124B1B6F9B041ED400F03F000F4B95
:1016800022F0604221F0604140F489101867C3F8ED
:101690008010C3F890201A6F22F480521A671A6FD4
:1016A000002AFCDAD3F87011054A0A40C3F8702109
:1016B0001A6F22F480321A67704700BF00800D4015
:1016C000FF7F7FFF43690A4A03EB011010B4037ADE
:1016D000084C02EB0313D3E901321460C2681A60AC
:1016E00003690BB142691A605DF8044B704700BF93
:1016F000E07A002061F801004369027E03EB0212E8
:1017000092F808C08C451CD01A7AFF2A19D0914251
:1017100010B5044616D01A7EFF2A06D00121D3E95F
:10172000002312681A4201D1217610BD064B052212
:10173000204603EB0C135B681A60FFF7C3FF2176AA
:10174000F3E770470021EAE7E07A002043690A4A9C
:1017500003EB011010B490F82830084C02EB03138F
:10176000D3E901321460C26A1A60036B0BB1426B99
:101770001A605DF8044B7047E07A002061F80100C0
:101780004369427E03EB021292F828C08C451ED0BA
:1017900093F82820FF2A1AD0914210B5044617D09A
:1017A00093F83820FF2A06D00121D3E900231268DC
:1017B0001A4201D1617610BD064B0522204603EB8B
:1017C0000C135B681A60FFF7C1FF6176F3E770479F
:1017D0000021EAE7E07A0020164942698B6B23F486
:1017E0007C0343F4802370B58B630446124DD2E929
:1017F00000130A681A4303690A60022200211A6171
:101800000E4A19619A6401225A629D624FF4303582
:10181000DD624FF001159E6C1E6519629D651A61AF
:10182000017EFFF74FFF617E2046BDE87040FFF765
:101830008DBF00BF00C00F40B80B05053B3728190E
:10184000B1F5607FF0B50E468DB028BF4FF46076DD
:101850000F46054672B62E4B0024702218602146B2
:101860002C4B2D481C8000F0B7FECFB121462A48F2
:101870004FF0010C4A0901F01F03013150F82240DA
:101880000CFA03F38E4243EA040340F82230F1D805
:10189000284600234380013300F582709E42F9D828
:1018A0001E4C257815B162B60DB0F0BD082000F0D1
:1018B0006BFE1B4B80220646009302A90693194B30
:1018C0000271056008A8029300F082FE06A9164A7C
:1018D000304600F06DFE069B08A8DB689847009B29
:1018E00002A8DB6898472378002BDCD10F4B104A05
:1018F000C3F858210F49D0204FF0E023402281F84F
:101900004600C3F808210123237062B60DB0F0BD74
:1019100048A200209AA7002050A20020ADA70020D6
:101920009C0C0020ADBF00001B10010000940020A3
:10193000B9BF000000E400E0204B002030B4C3E950
:101940002000C3E92200C3E92400C3E92600C3F84C
:10195000A800BFF34F8F4FF0E0231949194AC3F88D
:10196000701FC3F8702FBFF34F8FBFF36F8F164BED
:101970000146164C01229D6804F6DC749D601863D4
:10198000134B44F81C0C184602330088A34212FA89
:1019900080F21144F7D192B20C4B42EA0142C3F8F3
:1019A000DC2FBFF34F8F4FF0E023094AC3F8682FB5
:1019B000BFF34F8FBFF36F8F30BC704700FF2720FE
:1019C00080FF2720A0FF272000800F4000F0272065
:1019D000C0FF2720B24BD3F880200B2A2DE9F04717
:1019E0000D461BD14FF0FF30AE49AF4BAF4E01F16A
:1019F000040C5040202400F00102013C03FB02F2E1
:101A000082EA5000F7D1B44502D04A686146EEE759
:101A1000DFF88C82D8F8A830984279D02B6817224A
:101A2000A34928465B689847284600F0BDFD2B680F
:101A30004822A0495B6828469847284600F0B4FD34
:101A40002B6849229C495B6828469847284600F045
:101A5000ABFD2B68242299495B68284698472846A5
:101A600000F0A2FD2B68472295495B6828469847FD
:101A7000284600F099FD2B683F2292495B68284672
:101A80009847284600F090FD8F4B9C68A2070DD523
:101A90001A6B8E4B9A422B6800F0748140228C495D
:101AA0005B6828469847284600F07EFD670700F1EE
:101AB0005F81260700F15281E00600F14581A10611
:101AC00000F13881620600F12B81230600F1DD80F0
:101AD00014F4807440F0AD80714BD3F8C06096B1BF
:101AE000D3F8DC700122C0337A48194602330988E2
:101AF000834212FA81F21444F7D193B243EA0443C9
:101B00009F4200F07C81FFF717FF0120BDE8F087BE
:101B10002B680C22704928465B689847284600F0DD
:101B200043FD2A68D8F8A49028466C4BD2F804A04C
:101B3000A3FB09276A497F09A3FB072326225E0925
:101B4000C8F8A460D04767490A222846A1FB06319D
:101B50002346090901EB4101A6EBC10100F010FD8C
:101B60002B68C6EB061601225B6828465E4998473B
:101B70002346A7EB86010A222846C7EB071700F089
:101B8000FFFC2B68012258495B682846984723468A
:101B9000A9EB87010A22284600F0F2FC284600F053
:101BA00003FD2B68242251495B6828469847234649
:101BB0001022D8F89810284600F0E2FC284600F0E1
:101BC000F3FCD8F88860002E40F0DF80344ED6F861
:101BD0008C40002C40F0FA802B6822224449284691
:101BE0005B6898472E4B0221284693ED280AB7EEF2
:101BF000C00A00F0E9FC2B6805223E495B682846D4
:101C000098472B681D223C495B68284698473B4A09
:101C10003B48002311680A22A0FB01012846890CD9
:101C200000F0AEFC2B68042236495B6828469847D2
:101C30002AE72B682922344928465B6898472846BA
:101C400000F0B2FC2049286821228B6844682846AD
:101C500023F480738B602D49A047284600F0A4FC34
:101C60002B6842222A495B6828469847284600F09C
:101C70009BFC284A284B07211964936B43F04003CF
:101C80009363BFF34F8F30BFFDE72B6821222349B9
:101C900028465B689847284600F086FC18E700BF96
:101CA00000FF272080FF27202083B8EDA8FF2720F2
:101CB0006883002080830020CC83002018840020CB
:101CC000408400208884002000800F40F100AD0B8C
:101CD00014850020DCFF2720507E0020898888881A
:101CE000607E0020ABAAAAAA887E00208C7E0020FD
:101CF00014830020388300204083002010890020B6
:101D000083DE1B4360830020488600207486002009
:101D10009886002000400D4000C00A402486002024
:101D20002B6821229C4928465B689847284600F08A
:101D30003BFCCAE62B682922984928465B689847ED
:101D4000284600F031FCBDE62B682622944928463F
:101D50005B689847284600F027FCB0E62B682A22EB
:101D6000904928465B689847284600F01DFCA3E68A
:101D70002B6827228C4928465B689847284600F044
:101D800013FC96E6482289498AE62B68082288498E
:101D900028465B68984723461022D8F888102846C2
:101DA00000F0EEFB284600F0FFFBF40769D4B00713
:101DB00000F15381310700F14481F20600F15D81A9
:101DC000B30667D52B682A227A495DE02B68082282
:101DD000794928465B68984700231022D6F88C1072
:101DE000284600F0CDFB284600F0DEFBA00767D4B4
:101DF00061007FF5F1AE2B681B22704963E001247E
:101E0000DFF8F4A1DFF8F491DFF8D48105E00134C4
:101E1000072C3FF478AED8F8C060631E012707FA9C
:101E200003F23242F3D009EB83062B680E225146AF
:101E30005B68284698472146284600F0D1FB2B686E
:101E400005225F495B6828469847716800230A228B
:101E5000284600F095FB2B6804225A495B68284607
:101E60009847716800231022284600F089FB2B68F0
:101E70003A4655495B6828469847284600F094FB47
:101E8000C5E72B68282251495B68284698472846B1
:101E900000F08AFB37063CD4F4051BD4B00500F1F2
:101EA000D880710500F1D180320500F1E280F304A1
:101EB00000F1DB80B70416D52B68312244490CE0D1
:101EC0002B682622434928465B689847284600F03D
:101ED0006BFB81E62B6820223F495B6828469847C8
:101EE000284600F061FB340440D4F0032ED4B10343
:101EF00000F1B78072034BD4330300F1C680F701C1
:101F000000F1BF80B4017FF561AE2B681B2233491D
:101F10001FE02B682122324C284632495B689847E3
:101F200010220023D4F89010284600F029FBD4F8A2
:101F300090201F2A64D92C4B9A4203D320339A4213
:101F4000C0F0A780284600F02FFBA5E72B682322CE
:101F500026495B682846224E9847284600F024FB15
:101F6000D6F88C40002C3FF437AE2FE72B682122A7
:101F70001F4928465B689847194900231022D1F869
:101F80009410284600F0FCFA284600F00DFBACE760
:101F90002B6828221749DCE700860020D485002022
:101FA000AC8500208085002058850020C884002052
:101FB000B47E0020647F0020C4820020F8820020CC
:101FC000EC860020F486002014840020C07E0020CF
:101FD00088810020D082002078800020A882002004
:101FE00000FF2720907F0020E0A70020E081002054
:101FF000BC81002038820020DC860020C0FF272022
:102000002B681E22264928465B689847D4F898100A
:1020100000231022284600F0B3FA2B683E22214903
:102020005B6828469847D4F8981000231022284669
:1020300000F0A6FA2B681D221B495B6828469847CA
:1020400080E72B68292219491EE72B68442218498A
:1020500043E72B682C2217493FE72B6821221649BA
:1020600012E72B683222154973E72B683322144993
:1020700033E72B683F2213492FE72B6825221249AB
:1020800002E72B682822114963E72B6816221049C2
:102090005FE72B6841220F4928465B68984751E764
:1020A000B47F0020D47F002014800020107F002007
:1020B000CC8000209C800020EC7E00200482002048
:1020C00054810020148100203C7F00207C8200206D
:1020D0006482002034800020124BD3F880300B2B18
:1020E0001ED14FF0FF32104830B5104D104C01E0BA
:1020F0006B68754605F1040E5A40202102F0010379
:10210000013900FB03F383EA5202F7D1A645EFD170
:10211000044BD3F8A800801AB0FA80F0400930BD13
:102120000020704700FF27202083B8ED80FF272084
:10213000A8FF2720104BA020104AD96E41F440314F
:1021400010B4D96640F23764D96E41F44071D96653
:1021500054649064936C1B06FCD4094A40F23761C6
:10216000A02351649364936C13F08003FBD1054A60
:1021700013705DF8044B704700C00F4000400C40E6
:1021800000800C40B3A70020704700BF704700BF1D
:10219000704700BF00BF704710B44FF0E02300212C
:1021A00010243148C3F8941DC3F89C4D1124C3F882
:1021B000A00D2E48C3F89C4D1224C3F8A00D2C4846
:1021C000C3F89C4D2B4AC3F8A00D2B4C42F01502CE
:1021D0002A48C3F89C4DC3F8A00D294C2948C3F8E0
:1021E0009C4DC3F8A00D284CC3F89C2D2748284AC5
:1021F000C3F8A04DC3F89C0DC3F8A02D02F5A02292
:10220000244C0C322448C3F89C4DC3F8A02D234A1B
:10221000C3F89C0D224CC3F8A02D02F14062C3F814
:102220009C4D2048C3F8A02D0C32C3F89C0DC3F878
:10223000A02D00BF00BF00BF00BF00BF0122C3F838
:10224000942DBFF34F8FBFF36F8FC3F8501FBFF3B1
:102250004F8FBFF36F8FD3F8142D5DF8044B42F40A
:102260004032C3F8142D70473F00001025000807C6
:1022700009001000E0A70020130020002100020741
:10228000140000202500081309000010160020206B
:1022900027000B1317000040180000602F000B07E9
:1022A000190000701A000080F0B4154A40274FF45E
:1022B00080314FF480564FF400554FF4404443F2C0
:1022C0004200136913F0020F0ED113F4005F0FD018
:1022D00013F4805F0ED0002BF3DA13F4803F0BD1A0
:1022E0005B060BD5F0BC7047946151619061E8E7E3
:1022F0005561E6E75661E4E79161E2E75761E0E79F
:1023000000800D403F4A03203F49F3EE095AD2F8BE
:1023100080304FF0000C9FED3D6A23F001039FEDEC
:102320003C5A30B4C2F88030C2F89000D1F8E010C6
:10233000384DCBB2384C39482B6007EE903A0B0D34
:10234000C1F30B21F8EEE77A06EE903A07EE101A89
:10235000334BB8EEC77A2160F8EEE66A314937EEC2
:10236000C66A37EEC55A76EEC76A77EEE57A26EE8C
:10237000266AC3ED006A25EE265AD2F8803067EE51
:10238000A64AC0ED007AC6EE275A274885EE276A8E
:10239000C4EEA76A75EE875AFCEEE55A36EE076A78
:1023A00015EE904ABCEEC66A43EA045376EE877A8D
:1023B000C2F8803016EE103AD2F89041FCEEE77A7F
:1023C00001EA0341214317EE903AC2F89011C3F39A
:1023D0000B03D2F890110B431449C2F89031D2F894
:1023E000803043F00203C2F88030114B80F840C0C7
:1023F000C1F840314FF0E023012230BCC3F808217E
:10240000704700BF00810D4000441F400000AA42F9
:102410000000B44260A700205CA7002064A7002051
:1024200068A700200000FF0F00E400E000940020F7
:10243000C5D70000314B40F6617210B5C3F82021BA
:1024400040F2044400F0D0F82D4A2E49D2F88030F2
:102450002D4843F00303C2F880302C4BC1F8604193
:1024600002681A4203D1D1F8A8319A071BD0254A35
:102470004FF00041244B5963D2F8403143F002033E
:10248000C2F84031D2F840319B07FBD44FF4003002
:102490004FF0E0211C4B4FF00042C1F88C02192094
:1024A0009A6300F07DF8184A4FF08040154C0021E7
:1024B00090630A20164B11604FF42072C4F8A801F3
:1024C000184600F089F84FF4800203464FF481006B
:1024D00040F243111860C4F858311A640D4B0E4A8B
:1024E000C4F84811C3F804224FF0E0224FF4003141
:1024F0000123C2F80C11C4F8403110BD00800D401A
:1025000000C00F4000002E4000900D40001C1E0037
:102510000000002000940020ADD9000008B50E4B4B
:102520001B6E9B0700D4FBBE72B60C4B00200C4AFE
:10253000C3F8400103F160430A49A3F55F23116426
:102540009D46BFF34F8F4FF400130748074ADB69DE
:1025500002609B68984700BF00441F4000002E4067
:1025600000C00A400300200000802020000012EB81
:10257000F8B500BFF8BC08BC9E46704700000000DC
:102580005FF800F091C800005FF800F03DD2000055
:102590005FF800F0F9D000005FF800F025CC0000F3
:1025A0005FF800F015CF00005FF800F059C8000098
:1025B0005FF800F039C600005FF800F0A5D4000015
:1025C0005FF800F0F11B01005FF800F0B9C80000EF
:1025D0005FF800F021C000005FF800F0AD180100C6
:1025E0005FF800F041C800005FF800F01DE1000056
:1025F000450000005D1F0000F120000005260000DE
:102600001D260000352600004D260000652600002E
:102610007D26000095260000AD260000C52600009E
:10262000DD260000F5260000992B0000B12B0000EC
:10263000C92B0000E12B0000F92B0000112C000039
:10264000292C0000412C0000752C0000A52C000056
:10265000BD2C0000D52C0000ED2C0000052D000045
:08266000CD4200003DC700005F
:102668001F1C1F1E1F1E1F1F1E1F1E0053756E4D91
:102678006F6E547565576564546875467269536121
:10268800740000004A616E4665624D617241707265
:102698004D61794A756E4A756C4175675365704F1F
:1026A80063744E6F764465630000000080C00F407D
:1026B800000000031900000010000000E8841F401B
:1026C80001000000FF000000FF0000000000000003
:1026D800000000001800000010000000E4841F4003
:1026E80001000000FF000000FF00000000000000E3
:1026F800000000001F000000A1BF000070C00F40D4
:10270800000C00001100000011000000E0841F40D0
:10271800020000002400000012000000E0841F40B6
:10272800010000001000000011000000DC841F40C0
:10273800020000002500000012000000DC841F4099
:10274800010000001E00000095BF000070C00F408F
:10275800C00000001200000013000000D0841F40D9
:1027680001000000FF000000FF0000000000000062
:10277800000000001300000013000000CC841F407C
:1027880001000000FF000000FF0000000000000042
:10279800000000001C00000089BF0000160355005F
:1027A8005300420020005300650072006900610078
:1027B8006C00000018035400650065006E0073008B
:1027C80079006400750069006E006F000403090455
:1027D80009026200030100C032080B000202020174
:1027E800000904000001020201000524001001058F
:1027F80024010101042402060524060001070582BC
:102808000310001009040100020A00000007050374
:10281800024000000705840240000009040200028B
:10282800FF6AFF0007058102400001070501024019
:102838000001000009026200030100C032080B0019
:10284800020202010009040000010202010005243D
:1028580000100105240101010424020605240600D4
:10286800010705820310000509040100020A00009F
:1028780000070503020002000705840200020009A0
:1028880004020002FF6AC70007058102000201076F
:1028980005010200020100000A060002EF020140E1
:0428A800010000002B
:1028AC00000000000000000000000000000000001C
:1028BC00000000000000000000000000000000000C
:1028CC000548064B1B1AD90F01EBA301491002D086
:1028DC00034B03B118477047C0960020C0960020E8
:1028EC000000000008B5054B1BB105490548AFF3C6
:1028FC000080BDE80840FFF7E3BF00BF0000000008
:10290C000CA70020006C026038B590F845330BB969
:10291C00184638BD04460D4602F066FE2946204690
:10292C00BDE8384002F008BF02F05EBE03F098BB71
:10293C00B5EEC00AF1EE10FA0DD4F7EE007A90F86D
:10294C004433B4EE670AF1EE10FA37FE800A80EDDC
:10295C00D20A43B970479FED0B0A90F8443380EDCF
:10296C00D20A002BF6D09FED087A00F53A70DFED15
:10297C00077AE0EE077AFCEEE77A17EE901A02F08F
:10298C008FB900BF0000000000000143EE7CFF3E49
:10299C0069B372B690F8903203F0FF0213B10023C2
:1029AC0080F8903262B62AB372B647F6FF7C4FF4C9
:1029BC000042B0F99232B0F99412A0F892C2A0F889
:1029CC00942262B6002983EAE3729FED0E7AB8BFB7
:1029DC004942A2EBE37289B293B28B42B8BF0B4669
:1029EC0007EE903AF8EEE77A87EE870A7047D0F850
:1029FC00C03213B9BFEE000A704700F5267001F023
:102A0C0093BF00BF00FEFF4638B504463C21184872
:102A1C0004F53A752DED028BB0EE408A19F064FF87
:102A2C00284602F0F7F884F8440384EDD28A80B982
:102A3C000B21104803F0E0FC0D210E4803F0DEFCE6
:102A4C000A210D4804F028F884F84503BDEC028BEC
:102A5C0038BD9FED0A7A2846DFED097AE8EE077A51
:102A6C00FCEEE77A17EE901A02F01AF9E0E700BFD5
:102A7C000000202014890020C89C00200000014385
:102A8C00EE7CFF3E38B590F844330446ABB194F875
:102A9C00453323B194F844336BB9002038BD0A2177
:102AAC00124803F0F9FF94F8443384F84503002BE3
:102ABC00F3D00028F1D0012038BD00F53A75284636
:102ACC0002F0A8F884F844030028E0D0D4EDD26AD0
:102ADC0028469FED077ADFED077AE6EE877AFCEE63
:102AEC00E77A17EE901A02F0DBF8D0E7C89C0020CA
:102AFC0000000143EE7CFF3E08B5002120200CF0C5
:102B0C0013FF00211E200CF00FFF00211C200CF0E5
:102B1C000BFF20200CF0F6FE01280ED01E200CF02E
:102B2C00F1FE012808D01C200CF0ECFEA0F10100F5
:102B3C00B0FA80F04009400008BD002008BD00BF7D
:102B4C0038B590F8B43303B938BD0446D0F8B01397
:102B5C000830FFF7D9FE18B3D4F8B8330122082196
:102B6C001948134484F8B523C4F8B8330EF08EFA20
:102B7C00D4F8B05335B1284611F092FE01462846E0
:102B8C000EF084FA062111480EF080FAD4F8B8132E
:102B9C000F480CF0A5FA0E48BDE838400CF0ACBA62
:102BAC000F210C480EF072FAD4F8B04334B1204621
:102BBC0011F076FE014620460EF068FA0448BDE896
:102BCC0038400CF099BA00BFDC070020E807002061
:102BDC0064890020F0070020134AD0F8DC13136836
:102BEC005B1A182B00D8704710B5136804460121E6
:102BFC000830C4F8DC33FFF7CBFEB5EEC00AF1EEBB
:102C0C0010FA10D4D4EDEF7A0620F8EEE77ABDE88E
:102C1C00104027EE800AFDEEC07A17EE901A81F371
:102C2C0008010CF0EBBF10BD74A700202C4B1A68E8
:102C3C00D20730B5044685B008D52A4D2A4A2968F2
:102C4C0013685B1A312B0BD805B030BD264A012016
:102C5C00244D11681860136829605B1A312BF3D965
:102C6C00136816202B600CF0D5FB07EE900AB2EE21
:102C7C00047AD4EDD46AFAEECB7A67EE877AF8FE52
:102C8C00677A87EE870AB4EE660AF1EE10FADBD0AB
:102C9C0004F10800FFF74CFE072114480EF0F6F97A
:102CAC0094EDD40A02211248B7EEC00A0CF054FA83
:102CBC000F480CF021FA94EDD47A08210D4AB7EEA6
:102CCC00C77A0DEB01008DED007B11F0BBF802AB68
:102CDC005622302104F5587000F0A6FE05B030BD28
:102CEC009CA10020E4A3002074A70020D0050020A4
:102CFC0064890020D80500202DE9F0417E4D47F273
:102D0C002F52D0F8C41304462B685B1A934235D863
:102D1C0000F1080790F8B463D4F8C8232B689B1A09
:102D2C0041F2873293420FD92B6804F55878C4F8D6
:102D3C00C833002E40F09F80704B40464822302113
:102D4C0000F072FE94F8B463002E45D13846FFF7BC
:102D5C00EDFD002840F09F800121204600F01EFF71
:102D6C00002106200CF04AFF2B6844F61F62D4F8B1
:102D7C00CC135B1A934244D8BDE8F0812B68142223
:102D8C00082100F55670C36600F0BEFD94F8B4330C
:102D9C000646834200F0838004F55878002846D01C
:102DAC00574B57223021404600F03EFE94F8B46356
:102DBC00002E53D1601C00F045FD01222B6884F8D5
:102DCC00B423D4F8C823C4F8B8639B1A41F28732F1
:102DDC00934275D804F108073846FFF7A7FD002881
:102DEC004BD12B68D4F8D4239B1AB3F5FA7F59D264
:102DFC002046022100F0D2FE002106200CF0FEFE3F
:102E0C00B2E7296804F558753D4B52222846C4F8A0
:102E1C00CC13312100F008FE96200CF0CBFC284698
:102E2C00374B52223221BDE8F04100F0FDBD344B4E
:102E3C0053223021404600F0F7FD94F8B433002BB8
:102E4C0049D004F10807601C00F014FD84F8B46349
:102E5C003846FFF769FD94F8B4635DE7D4F8C823EE
:102E6C0004F108072B689B1A41F287329342B3D9BD
:102E7C002B68C4F8C833234B5FE72046FFF7ACFE42
:102E8C0094F8C0331BBB0821204600F087FE2B684A
:102E9C00C4F8D43368E73846FFF746FD5CE704F125
:102EAC00080739E7164B5022302104F5587000F012
:102EBC00BBFD2046FFF744FE2B68C4F8D43397E7DC
:102ECC002B6804F10807C4F8C8330E4B35E72046CD
:102EDC00FFF7ACFED7E7D4F8C82304F108072B683A
:102EEC009B1A41F2873293427FF630AF2B68C4F8BD
:102EFC00C833024B21E700BF74A70020A8050020AF
:102F0C0028080020A40500201A4BD0F8D02370B557
:102F1C001E68044690F8B433B61A53B10830FFF764
:102F2C0005FDD0B9144920468E428CBF06210221E2
:102F3C000BE000F108052846FFF7F8FCB0B90E4984
:102F4C0020468E428CBF0621012100F027FE002175
:102F5C000620BDE870400CF051BE2046FFF73CFE49
:102F6C0020460821BDE8704000F018BE2846FFF747
:102F7C00DBFCE4E774A70020905F010070B513211F
:102F8C0004464C480EF082F84B480CF0B5F805217D
:102F9C004A480EF07BF894F8AC1347480CF0A0F8B4
:102FAC0045480CF0A9F8052145480EF06FF8D4F807
:102FBC00B05335B1284611F073FC014628460EF08B
:102FCC0065F83D480CF098F894F8AC33002B66D0BB
:102FDC0006213C480EF05AF894F8B4333A4E002BC4
:102FEC003A4D15BF03210221304628460EF04EF80B
:102FFC0031480CF081F8082135480EF047F894F868
:10300C00B533002B15BF03210221304628460EF0A4
:10301C003DF829480CF070F807212E480EF036F8D0
:10302C0094EDD40A02212448B7EEC00A0CF094F8AF
:10303C0021480CF061F80A2127480EF027F8D4F843
:10304C00BC131D480CF04CF81B480CF055F80B2128
:10305C0022480EF01BF8D4F8B81317480CF040F8BF
:10306C0015480CF049F809211D480EF00FF80CF02A
:10307C00FBFF0221B7EEC00A0F480CF06DF80221DD
:10308C0018480EF003F80C480CF036F810211648CE
:10309C000DF0FCFF0848BDE870400CF02DB8042181
:1030AC0012480DF0F3FF044904F5567000F076FC5D
:1030BC008EE700BF3C0600206489002050060020EB
:1030CC005806002068060020380600203406002030
:1030DC00DC070020D0050020700600207C060020B4
:1030EC008806002094060020980600206006002028
:1030FC0010B51221044618480DF0C8FF17480BF004
:10310C00FBFF94F8AC33BBB194F8B433FBB9002398
:10311C000721204684F8B43300F040FD104A40F6F5
:10312C00B730116813685B1A8342FBD94FF0E02368
:10313C000C4AC3F80C2D10BD0B4B4222302104F568
:10314C00587000F071FC94F8B433002BDFD0601C85
:10315C0000F090FBDBE700BF200600206489002014
:10316C0074A700200400FA05280800202B3910B59C
:10317C0004462D2924D8DFE801F02F2349232323EB
:10318C0023232323232323232323235123666F2346
:10319C00238623232323238A2323A523232323BF0B
:1031AC0023C3C72323D8172490F8B43343B9601C26
:1031BC0000F048FB0122002384F8B423C4F8B83390
:1031CC0010BD0830FFF7B0FB0021062084F8B513C2
:1031DC00BDE810400CF012BD90EDD40A0830DFEDC4
:1031EC005A7A30EE270AFFF7A3FB072157480DF058
:1031FC004DFF94EDD40A02215548B7EEC00A0BF0EE
:10320C00ABFF5348BDE810400BF076BF90EDD40AED
:10321C000830DFED4D7A30EE670AE4E7D0F8BC33C6
:10322C0004214C48193B23EAE373C4F8BC330DF07A
:10323C002DFFD4F8BC1346480BF052FF4448BDE8B0
:10324C0010400BF059BFD0F8BC330421414819335E
:10325C00FF2BA8BFFF23E8E73A213F480DF016FFEC
:10326C003B480BF049FF23213C480DF00FFF384839
:10327C000BF042FF36213A480DF008FF3448BDE808
:10328C0010400BF039BFBDE81040FFF731BF90F88C
:10329C00AC33002B94D0002A92D01378002B8FD013
:1032AC00304B90F8B4131B68C0F8D0331378A3F1EB
:1032BC003102B2FA82F252098A4281D0312B3FF4A8
:1032CC0076AF26E090F8C0330521274883F0010340
:1032DC0084F8C0330DF0DAFE94F8C023234B002A97
:1032EC00234812BF0221032118460DF0CFFE1848C7
:1032FC00BDE810400BF000BFBDE81040FFF720BC4C
:10330C00BDE81040FFF73ABE90F8B433002B3FF401
:10331C0057AF601C00F0AEFA002304F1080084F8EB
:10332C00B433BDE81040FFF7FFBA002A3FF448AFB2
:10333C001378002B3FF444AF10460EF0CFFF04F18E
:10334C000800B7EEC00B4EE7CDCCCC3DD00500202D
:10335C0064890020340700204407002080070020E7
:10336C00A407002074A700203C0700202C07002095
:10337C0030070020F0B590F8AC538FB04DB30B78FC
:10338C000446302B07D0012D43D0022D0CBF322226
:10339C004C2293421BD14B78522B32D194F8B4630C
:1033AC0094F8B5730CF060FEB7EEC00A2B461A4ABF
:1033BC00282104A8019700968DED020B10F042FD18
:1033CC0004AB73224C2104F5587000F02DFB0FB0A8
:1033DC00F0BD0B784C2BFAD14B78732BF7D18C1C9E
:1033EC000E4811210DF052FE204611F059FA0146FB
:1033FC0020460DF04BFE0A480FB0BDE8F0400BF034
:10340C007BBE8A1C204619460FB0BDE8F040FFF782
:10341C00ADBE3122BDE700BFC0050020AC050020C9
:10342C0064890020F0B597B005460DF0A3FD3A284D
:10343C0043D00DF005FEC4B2202C3CD995F8AC332A
:10344C003BB9582C05D83B2C0BD82B2C11D02D2C40
:10345C000FD0534A2146284617B0BDE8F040FFF77D
:10346C0085BEA4F13C034F4ADBB222FA03F3DB071F
:10347C00EFD54B4B2246302105F5587000F0D4FAAD
:10348C00E7E704F1580300220DEB0304464B04F864
:10349C00302C0A9A9A4230D0444B0A9A9A424FD016
:1034AC00434B0A9A9A425DD0112142480DF0EEFD31
:1034BC0041480BF021FE17B0F0BD404E0DF0C0FDA1
:1034CC000024376805E03368DB1BC82BD9D82F2CB8
:1034DC00D7D00DF071FD0028F5D00DF0B1FD04F141
:1034EC0058030DEB0302C3B20A2BCAD00D2BC8D064
:1034FC003768013402F8303CE9E7BDF82C2046F679
:10350C0069539A42C8D19DF82E30652BC4D109AAB3
:10351C0008AB07A806A9CDE90232CDE9001005AB2E
:10352C0004AA27490DF12F0010F0F0FC06281FD03B
:10353C00232124480DF0AAFD1F480BF0DDFDBAE74E
:10354C001B4B0B9A9A42ABD105F55675284600F0E9
:10355C000FFA13211C480DF099FD1749284600F06D
:10356C001DFAA8E7144905F5567000F017FAA2E702
:10357C00DDE90630DDE9082105F556750090CDE949
:10358C0001212846DDE9041200F0D6F908210F4884
:10359C000DF07CFD0849284600F000FA8BE700BFCF
:1035AC0028080020450090187365747473796E6355
:1035BC0074696D65180700206489002074A70020C9
:1035CC00B4060020D406002004070020C806002002
:1035DC0090F84C3370B504468CB02BB390F84D3347
:1035EC0013B304F108060DF0E7FC10B12046FFF709
:1035FC0019FF04F5587501E0FFF7BCFE01A9284638
:10360C0000F040FA034601A92046002BF4D13046C5
:10361C00FFF78CF994F8AC3384F8B5032046ABB9BA
:10362C00FFF76AFB0CB070BD0A4A40F6B731D4F80C
:10363C00D80313681B1A8B42D3D9136804F10806FC
:10364C00C4F8D8333046FFF71DFACCE7FFF75CFC23
:10365C000CB070BD74A700202DE9F0475D4D0646F7
:10366C005D4C40F2EE29DFF8A8812F68DFF8A4A1A9
:10367C000DF08AFD2378002B67D098F80030DB071B
:10368C0063D52B68DAF800209B1A0E2B5DD906F552
:10369C0058704FF4165100F0C1F9504819F02CF93C
:1036AC00002861D13046FFF727FA012886F8AC03D1
:1036BC0058D04B4B4B4A022808BF1346C6F8B033C0
:1036CC00052149480DF0E2FC96F8AC1347480BF085
:1036DC0007FD062146480DF0D9FCD6F8B04334B1AD
:1036EC00204611F0DDF8014620460DF0CFFC3F4896
:1036FC000BF002FD304600F03BFA701C00F08CF829
:10370C00012106200CF010F908200CF095FB00218B
:10371C0006200CF073FA9FED370A06F10800FFF74C
:10372C0073F996F84C33002B48D096F84D33002B98
:10373C0038D096F8AC331BB30F212F480DF0A6FCF4
:10374C002A48BDE8F0470BF0D7BC2B682278DB1B6E
:10375C002AB1B3F5FA6F9AD80DF016FD88E74B45F0
:10376C00FAD994E7254BA9E7072125480DF08EFCE3
:10377C001E491A4819F0C4F81C480BF0BDFC91E71F
:10378C0006F5567000F08EF80028D5D108211D489A
:10379C000DF07CFC15480BF0AFFC0521304600F019
:1037AC00FDF9C9E7072118480DF070FC0F480BF024
:1037BC00A3FC0321304600F0F1F9BAE70A211348C3
:1037CC000DF064FC09480BF097FC0421304600F026
:1037DC00E5F9AAE774A70020BBA700200889002000
:1037EC00F8080020E408002050060020648900201E
:1037FC00E80500209A99193F10060020D8080020EF
:10380C00E005002004060020FC050020F005002047
:10381C00BAA7002084A7002010B50121044611206E
:10382C000CF082F8012110200CF07EF80021112000
:10383C000CF03EF8002110200CF03AF80023237015
:10384C0010BD00BF037803B1704710B501210446C9
:10385C0011200CF02DF84FF4FA700BF0ABFF012196
:10386C0010200CF025F84FF4FA700BF0A3FF012395
:10387C00237010BD037803B9704710B500210446BE
:10388C0010200CF015F84FF4FA700BF093FF002198
:10389C0011200CF00DF84FF4FA700BF08BFF002395
:1038AC00237010BD70B5054684B014490AF03EFA79
:1038BC000446287110B9204604B070BD28460AF0A1
:1038CC004DFA06460028F6D0294668460AF0BEFA9C
:1038DC009DF8003003F5FA63B3F5FD6F03D334465E
:1038EC00204604B070BD064A02A8064934460AF0C8
:1038FC006BFB02A928460AF039FAF1E7D4890020BB
:10390C00200900202C09002003790BB918467047B8
:10391C0030B583B00D460146144668460AF096FA57
:10392C009DF80320AA422CBF01230023A24228BFEA
:10393C000023184603B030BD10B50446007986B09C
:10394C0008B906B010BD0A98DBB2D2B2C0B289B2C7
:10395C0002900998C0B201900898C0B2009004A8D7
:10396C000AF01CFB04A920460AF000FA06B010BDB0
:10397C00037903B9704710B582B00446054A06496D
:10398C0068460AF021FB694620460AF0EFF902B0BE
:10399C0010BD00BF200900202C090020037910B5B0
:1039AC000C4690B053B3014606A80AF04FFA9DF8A6
:1039BC001D109DF81C209DF81830CDE903219DF8B1
:1039CC001B1003F5FA639DF81A20CDE901219DF82F
:1039DC001910104A009120210DEB010010F032FA61
:1039EC0008A810F05DFF2368024608A95B68204612
:1039FC00984720460BF080FB10B010BD0B680F22CF
:103A0C00054920465B689847204610B0BDE8104039
:103A1C000BF072BB48090020380900200068002216
:103A2C000368DB69184700BF10B514469EB01A46F0
:103A3C000B460094302101920446104A02A810F063
:103A4C0001FA2F2818D850B102AA002302EB000C5F
:103A5C0012F8011B944583EA0103F9D11846084A70
:103A6C0002AB402100900EA810F0ECF90246206841
:103A7C000EA90468636898471EB010BD00080020AA
:103A8C00080800202DE9F843002580460F46061D46
:103A9C00D8F8000003681B699847002860D0D8F854
:103AAC00000003685B699847C3B2232B0FD098F8CA
:103ABC004840002CECD00A2B0FD0D8F844203E2ADA
:103ACC0049DC511C4244C8F844101371E0E701234F
:103ADC00C8F8445088F84830DAE7D8F844302A213E
:103AEC00304643441D7188F8485010F081FBD8B320
:103AFC00A0EB0609C8F84450B9F1010FC8DD10223B
:103B0C000130002110F0A6F808F10303C0B2002226
:103B1C0003EB090C13F8011F9C4582EA0102F9D151
:103B2C009042B5D1A9F1020998F8043008F10601C8
:103B3C00B81CB9F1270F3B7098F80530A8BF4FF0AF
:103B4C0027097B704A464F440BF02EFF002320467A
:103B5C00BB70BDE8F88388F84850C8F8445097E724
:103B6C0004462046BDE8F883C8F8440090E700BF3F
:103B7C0030B5094C83B00220E51C012101900BF0FB
:103B8C00D3FE019800210BF093FEAC4202D014F846
:103B9C00010FF2E703B030BDF40800200F2917D84D
:103BAC00022010B50C46C1F3C7010BF081FE0320B7
:103BBC00C4F380010BF07CFEC4F3400104200BF035
:103BCC0077FE04F001010520BDE810400BF070BE3B
:103BDC00704700BF00207047704700BF036D0BB1EA
:103BEC0001207047406D003818BF0120704700BF9E
:103BFC0010B50446806D18B10EF07CFB0023A36554
:103C0C00236D2BB104F11800BDE8104007F032BC55
:103C1C00636D002BF6D110BDF0B595B000224FF4BA
:103C2C007A74244F1831054604A88DF80C2000979F
:103C3C00CDE90124CDE9122207F088FC129B002B60
:103C4C002DD05C2000260BF049FF019B04464660FA
:103C5C00C36004A9029B183040F8083C9DF80C3056
:103C6C0000F8043C144B40F8183C144B40F8103C42
:103C7C0007F0BEFB124B4FF47A72A7602B6063689F
:103C8C00A66501336E602E73AA602C6163600D4BC8
:103C9C0004A8009307F0EEFB284615B0F0BD139B6B
:103CAC00002BCED1064A2B732A602B61C5E9013457
:103CBC00EDE700BF3C0B0020600B0020BC0B00208C
:103CCC00100B0020C009002010B50446806D00B117
:103CDC0010BD4FF480700EF005FBA065B0B1002252
:103CEC00236D02703BB101464FF48072184607F009
:103CFC0011F8A06D10BD636D002BE9D001464FF497
:103D0C008072184604F0B4FCA06D10BD014B18462F
:103D1C00A36510BDB2A7002038B5056D6DB10BB110
:103D2C00002038BD1146284605F030FD0028F7D09C
:103D3C002846BDE8384005F0CBBE446D002CEFD0D2
:103D4C00204603F0E7F80028EAD02046BDE83840CA
:103D5C0003F05ABF8A79A2F150031B0622D402F257
:103D6C006C72F0B54B7985B0046D01330D798E789A
:103D7C004F78DBB209784CB1204601960095CDE91D
:103D8C000271022105F038FE05B0F0BD406D00282F
:103D9C00FAD001960095CDE90271022103F078FE6C
:103DAC0005B0F0BD0020704710B50446006D80B121
:103DBC00037813F0700F00D110BD002105F0E6FC64
:103DCC00606D0028F8D000220023BDE8104003F0FD
:103DDC00A1B8606D0028EFD090F8313013F0500F7F
:103DEC00EAD000220023BDE8104003F093B800BFD6
:103DFC00036D10B50C4682B02BB30DF1060201A970
:103E0C00184605F069F838B3BDF80430BDF8062043
:103E1C0053EA020120D0C2F3451C02F01F00D20A63
:103E2C00C3F34311400084F801C0A2705A0A01394F
:103E3C0003F01F0302F5EA62207001206171237107
:103E4C00A27102B010BD406D30B10DF1060201A996
:103E5C0002F006FF0028D7D1002002B010BD00BF31
:103E6C00036D10B50C4682B02BB30DF1060201A9FF
:103E7C00184605F021F838B3BDF80430BDF806201B
:103E8C0053EA020120D0C2F3451C02F01F00D20AF3
:103E9C00C3F34311400084F801C0A2705A0A0139DF
:103EAC0003F01F0302F5EA62207001206171237197
:103EBC00A27102B010BD406D30B10DF1060201A926
:103ECC0002F0BCFE0028D7D1002002B010BD00BF0C
:103EDC000369D3B10E4810B41C68E46884420FD156
:103EEC00186D18B15DF8044B05F02CBE586D18B167
:103EFC005DF8044B03F0FABE00205DF8044B7047EC
:103F0C00184623465DF8044B18470020704700BF45
:103F1C0089180000006990B10368154A1B69934227
:103F2C0025D1036D63B1187810F0080007D0D8695B
:103F3C005B69C01A48BF6FF0004070471846704765
:103F4C00436D002BFAD093F8310010F00800F6D036
:103F5C00186919685A69401A5B6862EB0303B0F17F
:103F6C00004F73F10003EAD36FF00040704718471D
:103F7C0085190000036973B11A68084952698A42AD
:103F8C0007D1186D08B105F08DBA586D18B102F053
:103F9C00ABBF184610474FF0FF307047B917000001
:103FAC00036923B31968134A10B58C6882B0944224
:103FBC0014D1186D48B101220DF1070105F09EF9DD
:103FCC0090B19DF8070002B010BD586D0028F8D0D4
:103FDC0001220DF1070102F0B7FEF1E701220DF10C
:103FEC0007011846A047EBE74FF0FF30EBE74FF027
:103FFC00FF30704711180000036963B11A68074954
:10400C0092698A4208D1186D08B105F0EFBC586D61
:10401C0008B103F0C7BB7047184610476118000081
:10402C00036D13B1586900217047436D13B1D3E987
:10403C000001704718461946704700BF036D13B155
:10404C00D86900217047436D13B1D3E9040170475F
:10405C0018461946704700BF036D13B1184605F09A
:10406C0021BA406D08B102F03FBF4FF0FF307047EE
:10407C00836C13B1184605F015BAC06C08B102F088
:10408C0033BF4FF0FF307047036D33B11B7813F023
:10409C00700F14BF012000207047406D30B190F8B4
:1040AC00313013F0500F14BF01200020704700BFB7
:1040BC00036D13B1184605F021B9406D08B102F03B
:1040CC0043BE4FF0FF307047836C00B583B063B1D3
:1040DC0001220DF10701184605F010F901280CD149
:1040EC009DF8070003B05DF804FBC06C28B10122F9
:1040FC000DF1070102F028FEF0E74FF0FF30F1E779
:10410C00036D13B1184605F071BC406D08B103F096
:10411C0049BB7047836C13B1184605F067BCC06C83
:10412C0008B103F03FBB7047036D13B1184605F09F
:10413C0009BD406D08B103F0D9BD7047836C13B154
:10414C00184605F0FFBCC06C08B103F0CFBD70473A
:10415C0000B5836C83B08DF8071043B101220DF1CB
:10416C000701184605F0EEFC03B05DF804FBC06CCB
:10417C000028F9D001220DF1070103F0B7FD03B0BF
:10418C005DF804FB8A79A2F150031B0622D402F2DB
:10419C006C72F0B54B7985B0046D01330D798E7866
:1041AC004F78DBB209784CB1204601960095CDE9E9
:1041BC000271042105F020FC05B0F0BD406D002813
:1041CC00FAD001960095CDE90271042103F060FC50
:1041DC0005B0F0BD00207047836C53B1187810F017
:1041EC0008000DD0D8695B69C01A48BF6FF0004059
:1041FC007047C36CA3B193F8310010F0080000D1E4
:10420C007047186919685A69401A5B6862EB0303B6
:10421C00B0F1004F73F10003F2D36FF00040704720
:10422C001846EDE7036D53B1187810F008000DD067
:10423C00D8695B69C01A48BF6FF000407047436D86
:10424C00A3B193F8310010F0080000D17047186941
:10425C0019685A69401A5B6862EB0303B0F1004FAE
:10426C0073F10003F2D36FF0004070471846EDE78E
:10427C0000B5006983B08DF8071060B10368104A6F
:10428C00DB68934215D1036D43B101220DF1070197
:10429C00184605F057FC03B05DF804FB406D002890
:1042AC00F9D001220DF1070103F020FD03B05DF8F8
:1042BC0004FB01220DF10701984703B05DF804FBE4
:1042CC008918000038B504460C4B806D236018B17A
:1042DC000EF010F80023A365236D04F118054BB103
:1042EC00284607F0C7F8064B2846A36007F0C2F82B
:1042FC00204638BD636D002BF2D1F4E7600B002033
:10430C00C009002038B504460E4B806D236018B1EF
:10431C000DF0F0FF0023A365236D04F118056BB1BC
:10432C00284607F0A7F8084B2846A36007F0A2F828
:10433C0020465C210BF0D4FB204638BD636D002B6E
:10434C00EED1F0E7600B0020C009002070B50446E8
:10435C0000F54E700AF03AFC04F549700AF036FC90
:10436C0004F544700AF032FC04F53F700AF02EFCA0
:10437C00244A254B256BA2602362002D32D06E6837
:10438C00013E6E6076BB2B68204ADB6A93422FD1CC
:10439C00A86D10B10DF0AEFFAE652B6D23B305F11A
:1043AC00180007F067F8256BE5B12B68184A5B68B5
:1043BC00934224D1174BA86D2B6018B10DF09AFFC6
:1043CC000023AB652B6D05F11806A3B1304607F041
:1043DC0051F8114B3046AB6007F04CF85C21284685
:1043EC000BF07EFB204670BD6B6D002BD7D1DAE74E
:1043FC0028469847D7E76B6D002BE7D1E9E72846AD
:10440C009847EFE7FC090020100B00205113000027
:10441C00651A0000600B0020C009002030B4029C1B
:10442C0011469C4634B1012C1CD0022C0ED000201D
:10443C0030BC7047056DF5B14FF0FF33934274EB10
:10444C000C04F4D3284630BC05F0A0B9026D0AB3B5
:10445C00D36959184CF10003002BE8D1104630BC3D
:10446C0005F094B9026D62B1536959184CF100030F
:10447C00002BDCD1F2E7406D0028D8D030BC02F024
:10448C0049BD406D0028D2D0D0E900238A184CEBEE
:10449C000303F3E7406D0028C9D0D0E9042330BCF6
:1044AC008A184CEB030302F035BD00BF70B5244BEA
:1044BC00044605690360002D32D06E68013E6E60C3
:1044CC0076BB2B681F4ADB6A93422FD1A86D10B1C3
:1044DC000DF010FFAE652B6D23B305F1180006F03F
:1044EC00C9FF2569E5B12B68174A5B68934224D153
:1044FC00164BA86D2B6018B10DF0FCFE0023AB65BC
:10450C002B6D05F11806A3B1304606F0B3FF104B26
:10451C003046AB6006F0AEFF5C2128460BF0E0FAAB
:10452C00204670BD6B6D002BD7D1DAE72846984733
:10453C00D7E76B6D002BE7D1E9E728469847EFE703
:10454C00100B002051130000651A0000600B0020B6
:10455C00C009002070B5264B044605690360002D88
:10456C0032D06E68013E6E6076BB2B68214ADB6AE6
:10457C00934233D1A86D10B10DF0BCFEAE652B6D1E
:10458C0043B305F1180006F075FF2569E5B12B68FA
:10459C00194A5B68934228D1184BA86D2B6018B14F
:1045AC000DF0A8FE0023AB652B6D05F11806C3B109
:1045BC00304606F05FFF124B3046AB6006F05AFFF8
:1045CC005C2128460BF08CFA204614210BF088FA5B
:1045DC00204670BD6B6D002BD3D1D6E7284698478B
:1045EC00D3E76B6D002BE3D1E5E728469847EBE763
:1045FC00100B002051130000651A0000600B002006
:10460C00C00900202DE9F0436D4F0022DFF8D08166
:10461C0085B03B680446C0F8008002610281C2602C
:10462C00002B00F0C8801A465B69002BFBD154614B
:10463C00644B0025204604F51D7623604FF47A73F5
:10464C0065612362604B6560A572E56184F8245056
:10465C00A562A361C4E9185500F0B0FF04F52373FB
:10466C00C4F88052C4F88C52C4F884324FF480736E
:10467C003D68C4F87482A4F87C32002D00F09D8053
:10468C002B461A465B69002BFBD156614F4A00231F
:10469C0004F52677C4F8742247F6FF72C4F8883202
:1046AC00A4F892224FF40042C4F87832A4F8942271
:1046BC0004F52C7284F87E32C4F8A432C4F8B032FB
:1046CC002B46C4F8A8224FF48072A4F8A0221A46F4
:1046DC005B69002BFBD157610022C4F8AC32C4F8E3
:1046EC009C3284F8A232C4F8C032C4F8D432C4E983
:1046FC00B833374BC4F898320023C4E9AE2304F521
:10470C00387204F53273C4F8D8224FF40072A4F84E
:10471C00D0222A466D69002DFBD1536118462D4AD3
:10472C0004F53D79C4F8DC5204F54278C4F8C8228B
:10473C00C4F8CC5284F8D252039300F00FFE264AF0
:10474C004846C4F8E8220A2284F8F0220AF070F9EC
:10475C00039B2A462146484600950AF0DDF940465F
:10476C000AF066F9012204F54779039B2146009271
:10477C0040462A460AF0D0F904F54C7848460AF02F
:10478C0057F933462A462146484600950AF0C4F9A3
:10479C0040460AF04DF93B462A46404621460095D4
:1047AC000AF0BAF90D4B2046A4F84453C4F8483328
:1047BC0005B0BDE8F08338603AE735463E6065E702
:1047CC004CA20020FC090020100B0020140A002031
:1047DC00080A0020F0090020F40A00209A99193FD9
:1047EC00E40900200148FEF737BF00BFE098002025
:1047FC000148FEF7EDBE00BFE098002038B51B4C19
:10480C00002504F108006570FFF7FCFE184B194AEF
:10481C001949C4F8B0231A68C4F86013FF2118684A
:10482C00C4F8C4231A68C4F8BC131968C4F85853E4
:10483C0084F85C53C4F8A45384F8A85384F8AC539C
:10484C00A4F8B453C4F8B85384F8C053C4E9F202C2
:10485C001A6818681B68C4E9F412C4E9F603074A1D
:10486C0020460749BDE838400DF09AB8E098002082
:10487C0074A700202808002074890020008E0020D6
:10488C00AD1A000010B5002104460AF0C5F8C8B1F5
:10489C00031DB4F91EC0B4F9201000F5827E33F963
:1048AC00022B9445A8BF94469142B8BF114673455C
:1048BC00F5D10123A4F81EC021842377BDE8104054
:1048CC000AF05EB810BD00BF2DE9F0410021804612
:1048DC000AF0A2F8F8B100F1140100F58A7CD8E9CD
:1048EC00082351E9047651E90254C7FBC723C6FBE0
:1048FC00C623C5FBC523C4FBC42310316145F0D1CD
:10490C00D8F828100131C8E90823C8F82810BDE8E8
:10491C00F0410AF035B8D8F828300133C8F82830FF
:10492C00BDE8F0810000000038B572B69FED127B37
:10493C000023826AD0E90845836280ED087B62B669
:10494C00D201204629460DF0FBFA0DF0BBFA07EE1A
:10495C00900AF5EE407AF1EE10FA06D4B1EEE70AC1
:10496C00DFED077A80EE270A38BD00EE100A0CF056
:10497C00EBFFF5E7AFF30080000000000000000043
:10498C0000FEFF4610B504460AF0B6F9204610BDED
:10499C00024A034903480DF003B800BF008E002003
:1049AC00E5200000D4A300200020704700207047B1
:1049BC00F8B50127027A1E4C0D46BA40C1F3072107
:1049CC000646204684F8A52084F8307184F82F71AF
:1049DC0009F0CCFCE9B2204609F0C8FC00212046C5
:1049EC0009F09CFD08B10020F8BD3B460222317A4B
:1049FC00204609F013FE0128F5D994F8A22094F86A
:104A0C00A300824210D2531CA118DBB2897E9842BB
:104A1C004FEA012184F8A23006D923440232987E51
:104A2C0084F8A2200843F8BD4FF0FF30F8BD00BF5A
:104A3C00D4890020F8B50127037A144C242903FAF1
:104A4C0007F30D4608BFC2801646C1F30721204666
:104A5C0084F8A53084F8307184F82F7109F086FC45
:104A6C00E9B2204609F082FCC6F30721204609F082
:104A7C007DFC2046F1B209F079FC3946204609F05C
:104A8C004DFDB0FA80F04009F8BD00BFD48900207C
:104A9C002DE9F0414FF001080F461546302144F244
:104AAC00600280F804800446FFF7C4FF064610B984
:104ABC003046BDE8F0816C2226212046FFF7BAFF74
:104ACC004FF4F97228212046FFF7B4FF40F622720A
:104ADC002C212046FFF7AEFF44F246423C212046F3
:104AEC00FFF7A8FF40F2371224212046FFF7A2FF60
:104AFC00002F6BD0454B342120469F428CBF424641
:104B0C000022FFF797FF07EE905A9FED417A322172
:104B1C00B8EE676A07EE907A2046F8EE676AB5FB46
:104B2C00F7F2C6EE267A02F01F0206EE902AF8EE95
:104B3C00E66A77EEE67A67EE877AFCEEE77A17EEAE
:104B4C00903AC3F30A0343EAC222FFF773FF44F21D
:104B5C00FF5230212046FFF76DFF732202212046C1
:104B6C00FFF768FF4FF4C8700AF024FE41F61D529F
:104B7C002E212046FFF75EFF072204212046FFF777
:104B8C0059FFB02206212046FFF754FF10220A21BC
:104B9C002046FFF74FFF00220E212046FFF74AFF69
:104BAC0043F63C4210212046FFF744FF47F67F7244
:104BBC0022212046FFF73EFF362224212046FFF714
:104BCC0039FF012330466372BDE8F08144F2FF02E5
:104BDC0030212046FFF72EFF732202212046FFF7DB
:104BEC0029FF4FF4C8700AF0E5FD41F61D522E2145
:104BFC002046FFF71FFF042220461146FFF71AFF3D
:104C0C00302206212046FFF715FFBFE7406603015F
:104C1C000000004510B50446084817F059FE052061
:104C2C000AF0C8FD06212046FFF7C2FE2046044AC2
:104C3C000021BDE81040FFF72BBF00BFD489002036
:104C4C000040C40A10B50446D1B1012901D000209E
:104C5C0010BD40F273122A21FFF7ECFE0028F6D0AB
:104C6C00882220212046FFF7E5FE0028EFD0E288BD
:104C7C002046242122F00402BDE81040FFF7DABEE2
:104C8C0055222021FFF7D6FE0028E0D0E2882046EE
:104C9C00242142F00402BDE81040FFF7CBBE00BF58
:104CAC0038B5054611B380290CD8C1F180042B7995
:104CBC0044EA042453B9224628462221BDE8384050
:104CCC00FFF7B8BE2B790024002BF4D0EA88002320
:104CDC002421284622F010022B71FFF7ABFE22464E
:104CEC0028462221BDE83840FFF7A4BE012347F631
:104CFC007F7222210371FFF79DFEEA88284624214A
:104D0C0042F01002BDE83840FFF794BE9FED1F7AC9
:104D1C00DFED1F7AE0EE077A38B50546FCEEE77A50
:104D2C0017EE904A14B3802C0CD8C4F180042B7964
:104D3C0044EA042453B9224628462221BDE83840CF
:104D4C00FFF778BE2B790024002BF4D0EA880023DF
:104D5C002421284622F010022B71FFF76BFE22460D
:104D6C0028462221BDE83840FFF764BE012347F6F0
:104D7C007F7222210371FFF75DFEEA882846242109
:104D8C0042F01002BDE83840FFF754BE000001436A
:104D9C00EE7CFF3E30B482B00C4602AB03E9060059
:104DAC00C37C002B30D072B6C37CDA0708D54FF029
:104DBC00E0214569D1F880212A408262C1F8802126
:104DCC009D0708D54FF0E0218569D1F884212A4050
:104DDC00C262C1F88421590708D54FF0E021C5699A
:104DEC00D1F888212A400263C1F888211A0708D516
:104DFC004FF0E021056AD1F88C212A404263C1F8BA
:104E0C008C21DB062FD462B683689C4235D0224BB2
:104E1C0084609B69214AC3F30111C3F3826352F886
:104E2C0021100133B1FBF3F2CCB1944227D8B2FB81
:104E3C00F4F3B2FBF3F294422CD3B3F5817F20D37D
:104E4C00174CC460036803220020019918615A6250
:104E5C0001221C6419661A6102B030BC7047994279
:104E6C00EFD3531CE9E74FF0E022416AD2F89031BE
:104E7C000B408363C2F89031C5E7C468E2E70024B5
:104E8C00DFE7022BFBD9023B5A08140244EA024426
:104E9C001C43D6E71A46E4E700C00F40AC0C0020D8
:104EAC00FF7F7F00024A034903480CF079BD00BF25
:104EBC00008E0020E520000050A30020024A034988
:104ECC0003480CF06DBD00BF008E0020E5200000F3
:104EDC00C8A20020024A034903480CF061BD00BF80
:104EEC00008E0020E5200000E0A20020024A0349C9
:104EFC0003480CF055BD00BF008E0020E5200000DB
:104F0C0058A30020024A034903480CF049BD00BFD6
:104F1C00008E0020E520000060A30020024A034917
:104F2C0003480CF03DBD00BF008E0020E5200000C2
:104F3C0078A30020024A034903480CF031BD00BF9E
:104F4C00008E0020E5200000D0A20020024A034978
:104F5C0003480CF025BD00BF008E0020E5200000AA
:104F6C00E8A20020024A034903480CF019BD00BF17
:104F7C00008E0020E520000068A30020024A0349AF
:104F8C0003480CF00DBD00BF008E0020E520000092
:104F9C00D8A20020024A034903480CF001BD00BF0F
:104FAC00008E0020E5200000F0A200202DE9F04F3B
:104FBC0000F5807EB1E8A00AB2E84015C5EA0643C8
:104FCC00C6EA2544C7EA0845C8EA2746C9EA0A479B
:104FDC00CAEA2948CBEA0C49CCEA2B4AA0E8F807E4
:104FEC008645E7D1BDE8F04F70474FF000022DE940
:104FFC00F00F00F5807C00BFB1E8A00AC5EA0203FF
:10500C00C2EA2544C7EA0205C2EA2746C9EA0207F2
:10501C00C2EA2948CBEA0209C2EA2B4AA0E8F807FF
:10502C008445E9D1BDE8F00F70474FF000022DE93F
:10503C00F00F00F5807C00BFB1E8A00AC2EA05437E
:10504C00C2EA0504C2EA0745C2EA0706C2EA0947F2
:10505C00C2EA0908C2EA0B49C2EA0B0AA0E8F8073F
:10506C008445E9D1BDE8F00F70472DE9F00F089C9D
:10507C0000F5007B51F8045B53F8046BC5EA064756
:10508C00C6EA254952F8045B54F8046BC5EA064895
:10509C00C6EA254AA0E880078345EBD1BDE8F00FAE
:1050AC00704700BF2DE9F84F454B464C18681979ED
:1050BC0004F580750368444AAB42D1770BD2434B5D
:1050CC001B78002B4BD04FF0E02340222C4605F5EB
:1050DC008075C3F808223E4BDFF804A1D3F800809A
:1050EC00DFF800913B4BBAF80060D3F800B0B9F888
:1050FC000070B8F1000F4FD0BBF1000F21D1B8F107
:10510C00000F49D008F10401204601EB460140365E
:10511C00FFF76BFFBFF34F8F4FF0E022C2F8704FD9
:10512C002034AC42FAD3BFF34F8FBFF36F8F7F2E77
:10513C0026D8AAF800607F2F15D8A9F80070BDE812
:10514C00F88F0BF1040208F10401204602EB470230
:10515C00403701EB46014036FFF728FFDAE72C46D3
:10516C0005F58075B7E700245846A9F8004009F00A
:10517C0007FC194B1A681C60164B1A60BDE8F88FB7
:10518C0000244046AAF8004009F0FAFB134A104BE1
:10519C00116814601960CEE7BBF1000F08D00BF159
:1051AC000401204601EB47014037FFF73EFFB1E712
:1051BC004FF48072594620460EF0C8FFAAE700BF94
:1051CC0008A30020003D202000800E40AEA7002048
:1051DC00F8A2002000A3002004A30020FCA20020C1
:1051EC009CA700209EA7002038B50021044609F09A
:1051FC0013FC88B172B61C4A1368002B2BD01B49C8
:10520C000D68002D2CD0156008600021184A118003
:10521C0062B6184609F0B4FB0121204609F0FCFBEC
:10522C0098B172B6134A136883B113490C6854B120
:10523C0014600024114A0860148062B61846BDE858
:10524C00384009F09DBB086062B638BD0B49106050
:10525C000B8062B638BD064910600B8062B6DBE786
:10526C00086062B6D8E700BFF8A20020FCA20020BC
:10527C009CA7002000A3002004A300209EA70020D0
:10528C00F8B52D4C05462D4AE36F43F44023E367F4
:10529C009368002B46DBD2F88830002B42DB0023CE
:1052AC0042F210724FF40C611C2017F021FBE369E1
:1052BC00234A23F44063234943F40063E361A36A64
:1052CC001A40214B42F0CE02A2624A68134043F4CA
:1052DC0000234B602DB91D4B0322C3F82021C3F8CA
:1052EC0024211A4E0327154B0124C6F828710025DA
:1052FC004FF480301649174A174E1D66DC601E614C
:10530C0058619961DA61C3F8E050C3F88C4004F13C
:10531C00E064C3F89040C3F89400C3F89810C3F845
:10532C009C20F8BD002DFCD1084B0322C3F8202192
:10533C00C3F82421F8BD00BF00C00F400040384026
:10534C0000FEFFFF00C00A40F8FFF7FF00801F407F
:10535C001B1F0100001F1F1F0100004770B5264DC9
:10536C0000240121254E284609F06CFC244A254BCB
:10537C00204614601C60FFF783FF234B0321234A54
:10538C000220C3F880112B6821491A604FF48072F7
:10539C009C61DA82DA8306229C829A831D4ADE6043
:1053AC001A61C3E9011029791B480FFA81FC1B4BC8
:1053BC0040F82C4040F82C30194B1A48D976D2F8CA
:1053CC006630194C43F01043C2F8663042F81A0CA0
:1053DC0009F016FC2A79154B0121207002F11000FE
:1053EC0003EB521302F01F02114C91409B00114A27
:1053FC0042F82040196070BD08A3002000FEFFFF9A
:10540C00F8A2002000A3002000801F40003D2020B7
:10541C00020001012240384000C00E401400008000
:10542C0000800E4001000090AEA7002040380038EC
:10543C000528000000940020024A034903480CF0A0
:10544C00AFBA00BF008E0020E520000008A30020AA
:10545C00024A034903480CF0A3BA00BF008E002097
:10546C00E520000040A30020024A034903480CF049
:10547C0097BA00BF008E0020E520000080A300201A
:10548C00024A034903480CF08BBA00BF008E00207F
:10549C00E520000088A30020024A034903480CF0D1
:1054AC007FBA00BF008E0020E5200000A8A30020DA
:1054BC00024A034903480CF073BA00BF008E002067
:1054CC00E520000010A30020024A034903480CF019
:1054DC0067BA00BF008E0020E520000090A30020DA
:1054EC00024A034903480CF05BBA00BF008E00204F
:1054FC00E5200000B0A3002010B5054C04F1080015
:10550C0009F0FAFB2046BDE8104009F0F5BB00BFDE
:10551C0018A3002010B5084C0021204609F092FB7E
:10552C0004F10800002109F08DFB044A0449002015
:10553C00BDE810400CF034BA18A30020008E0020F7
:10554C00592C0000024A034903480CF029BA00BF49
:10555C00008E0020E520000070A30020024A0349C1
:10556C0003480CF01DBA00BF008E0020E52000009F
:10557C0098A30020024A034903480CF011BA00BF5B
:10558C00008E0020E5200000A0A30020024A034961
:10559C0003480CF005BA00BF008E0020E520000087
:1055AC0028A30020024A034903480CF0F9B900BFB4
:1055BC00008E0020E520000048A3002038B50446EA
:1055CC000E23006E002584F86F3284F87032656506
:1055DC0010B109F0D5F92566606E18B109F0D0F953
:1055EC000023636638BD00BF4FF0E022D2F80831CB
:1055FC0013F040032DE9F041044608D04023C2F8D3
:10560C00883190F86F320E2B6ED0012504E090F8A3
:10561C006F220E2A6DD01D460023D4E91806C4E96A
:10562C0018330E2384F86F3208B109F0A9F916B1BA
:10563C00304609F0A5F9A66A002E49D03368DFF888
:10564C00F480DB6A43455AD1B06D18B10CF052FEB0
:10565C000023B365336D002B4DD006F1180005F017
:10566C0009FFA76A7E68013E7E60002E2ED13B6842
:10567C00DB6A43454AD1B86D10B10CF03BFEBE65F8
:10568C003B6D002B3ED007F1180005F0F3FEA66A27
:10569C00E6B13368224A5B6893423ED1214BB06D30
:1056AC00336018B10CF026FE0023B365336D06F1A0
:1056BC00180773B3384605F0DDFE1B4B3846B36054
:1056CC0005F0D8FE5C2130460AF00AFA0023A362EA
:1056DC00164A13881BB1013B9BB213801BB94621A0
:1056EC00134800F0A1FE25B14FF0E0234022C3F88F
:1056FC000821BDE8F081736D002BAED1B1E73046C7
:10570C009847AEE77B6D002BBDD1C0E73846984774
:10571C00BDE7736D002BCDD1CFE730469847D5E769
:10572C00651A0000600B0020C009002090A7002023
:10573C0014890020511300002DE9F04796B006465D
:10574C000C46FFF751FF4FF0E023D3F8085115F04A
:10575C00400503D040220125C3F88821DFF8E08101
:10576C0046216F4800F04CFEB8F8003022466D49D7
:10577C00013302A8A8F80030002305F095FF149B14
:10578C00002B00F0A9805C2000270AF0A7F9039BEE
:10579C0004464760C36006A9049B1830DFF8A49147
:1057AC0040F8083C9DF8143000F8043C5E4B40F87F
:1057BC00183C5E4B40F8103C05F01AFE6368A76578
:1057CC0006A80133CDF808906360594BA36005F02F
:1057DC0051FEB76A002F54D07B68013B7B6001936C
:1057EC00002B32D13A685349D26A8A4240F08D80FC
:1057FC00B86D18B10CF07EFD019BBB653B6D002BA9
:10580C007ED007F1180005F035FEB76AEFB13B68A2
:10581C00494A5B6893427FD1434BB86D3B6018B1EA
:10582C000CF068FD0023BB653B6D07F1180A002BDB
:10583C006ED0504605F01EFE5046C7F8089005F095
:10584C0019FE38465C210AF04BF9B4621CB323688C
:10585C003A4A1B6B93421AD1236D002B4CD0002378
:10586C0014214FF00062A6F86A320E237165C6F857
:10587C006C2286F8703235BB0125284616B0BDE87F
:10588C00F08723682D4A1B6BB4629342E4D0204608
:10589C0098470028E3D1B8F8003023B1013B9BB204
:1058AC00A8F800301BB946211D4800F0BDFD002DA5
:1058BC00E3D000254FF0E02340222846C3F808210E
:1058CC0016B0BDE8F0874FF0E02340222846C3F81D
:1058DC00082116B0BDE8F087159C002C7FF453AF5F
:1058EC00DFF8609006A8CDF8089005F0C3FDB76A04
:1058FC00002F7FF471AFCEE7636D002BAFD1CAE7F9
:10590C007B6D002B7FF47DAF7FE7384690477CE7BB
:10591C007B6D002B8DD18FE73846984795E700BFFC
:10592C0014890020CC9C0020600B0020BC0B0020B4
:10593C003C0B002051130000651A00003D130000C1
:10594C0090A70020C0090020C26A91B2012912D18F
:10595C00016B03464AF64440814210B40DD045F227
:10596C002260814225D042F6113081421ED00020A7
:10597C005DF8044B7047002070470F4C0021120C4F
:10598C00012A04D0022AF2D1640841F001015A8F95
:10599C00082A04D0102AEAD1640841F0020183F8E5
:1059AC0070120120DC655DF8044B7047034C042138
:1059BC00E5E7034C0421E2E7BC13CE05F24E3817A1
:1059CC0079279C0B2DE9F04FB0F86A3200F16A068A
:1059DC0083B006EB030B09B304460D4608274FF4BE
:1059EC002068DFF864A3DFF8649394F86F320E2B11
:1059FC0000F22D81DFE813F012001200F100D80044
:105A0C001200120012001200A00073003C002B00C8
:105A1C0016002B011200002B00F0D880002003B0E0
:105A2C00BDE8F08F626D2B46B4F86A12954228BF20
:105A3C0013461944D21AA4F86A1240F07781ED1A71
:105A4C009B44676584F86F72002DCED1E6E7626DDA
:105A5C00AA4200F26D81B4F86A329344AD1A6765BC
:105A6C001A44A4F86E82A4F86A22002DBDD1D5E7A1
:105A7C00626D04F12C0094F86E325946AA42184417
:105A8C0028BF2A46019209F08FFF019A94F86E32D2
:105A9C00134484F86E32B4F86A321344A4F86A32B0
:105AAC00636D9B1A6365002BB8D1E16A9344AD1A00
:105ABC00226B5145626540F0D38084F8713294F8C2
:105ACC00703284F86F32DB0705D508F003FF60668F
:105ADC000028A3D0626DA265002D86D19EE7626D71
:105AEC0004F12C0094F86E325946AA42184428BF8F
:105AFC002A46019209F058FF019A94F86E32134429
:105B0C0084F86E32B4F86A321344A4F86A32636DC6
:105B1C009B1A6365002B81D12046FFF715FF0028E7
:105B2C0000F09580019A6765AD1A9344A4F86E82D3
:105B3C00002D7FF45AAF71E7626D04F12C0094F8DC
:105B4C006E325946AA42184428BF2A46019209F0DF
:105B5C002BFF019A94F86E32134484F86E32B4F829
:105B6C006A321344A4F86A32636D9B1A6365002B86
:105B7C007FF454AFE36A4B4569D1636B71498B4237
:105B8C0065D101F15B41A36B01F5F11101F60F41F8
:105B9C008B426CD1E36BA3F11001182957D84FF449
:105BAC001061A4F86E1267E0626D94F87112954260
:105BBC0028BF1546521B6265002964D1023DBBF813
:105BCC00007040F08280002A40F0AA800E23002052
:105BDC0084F86F3203B0BDE8F08F636D216E9D4287
:105BEC00B4F8682028BF1D465B1B636502E0002DDE
:105BFC003FF411AFBBF90000571C01EB4202023D10
:105C0C00A4F868700BF1020B9080B4F868207F2A1E
:105C1C00EDD90022204608F0DBFE0122216E204641
:105C2C0008F0D6FE206E08F0ABFE0022ABEB0603AC
:105C3C00606E2266626DA4F86A321544656510B117
:105C4C0008F09EFE656D002D63D00120E7E60E2363
:105C5C00002084F8703284F86F3203B0BDE8F08F06
:105C6C000B2384F86F32002D7FF4BFAED6E640F6DE
:105C7C000C43A4F86E32E36BAD1A93446365002DAC
:105C8C007FF4B3AECAE6216EB4F86800E76A01EBA4
:105C9C0040008780002084F87102B4F86800D84670
:105CAC00676E023D38F9023B07EB40070130A4F860
:105CBC006800BB80B4F868307F2B0FD875BB002A06
:105CCC0084D0284684F87152A9E6216E0BF1020BA0
:105CDC00B4F8680001EB40008780DEE70022204624
:105CEC00002708F075FE206E08F04AFE0122616E56
:105CFC002046276608F06CFE606E08F041FE626D6F
:105D0C00A8EB060367662A44A4F86A326265002A87
:105D1C009BD10E23012084F86F3280E6C3464DE7F9
:105D2C0002232846E76284F8713278E6626575E6EC
:105D3C00B4F86A32521B00202B446265A4F86A3214
:105D4C006DE600BF57415645646174615249464641
:105D5C0090F86F320D3B012B40F2BC802DE9F041E5
:105D6C00044608F0B7FD2066002800F0AC8094F8DB
:105D7C006F32072B02D8DD0700F1AD80002363667C
:105D8C00B4F86C120023B4F86A22A4F86830891AAB
:105D9C00994200F3068194F86F320E2B00F0B38019
:105DAC00A56A002D44D02B68A2491A698A4240F09A
:105DBC0030812A6D002A00F006811178080740F125
:105DCC00A680D1695269891A40F1128104F16A07DF
:105DDC00994E4FF6FF784DB32B689B68B34240F059
:105DEC00E780286D002800F081804FF4007239465E
:105DFC0003F084FA83B2A4F86C32002B00F0838099
:105E0C00002381B2204694F86F52A4F86A32FFF74F
:105E1C00D9FD94F86F32002873D10E2B73D0072D57
:105E2C0014D9072B12D8A56A002DD5D1A4F86C5221
:105E3C00824A1388002B48D0013B9BB21380002B65
:105E4C0043D00E2384F8703284F86F32256EFDB186
:105E5C00B4F86800B8B17F2808D8C0F180020230CD
:105E6C000021520005EB40000EF070F9002229468B
:105E7C00204608F0ADFD94F86F32072B02D8DB07F3
:105E8C0040F1BA80256E284608F07AFD002323667F
:105E9C00656EC5B1B4F8680080B17F2808D8C0F130
:105EAC00800202300021520005EB40000EF04EF94A
:105EBC0029460122204608F08BFD656E284608F025
:105ECC005FFD00236366BDE8F08146215C4800F06D
:105EDC00ABFAB6E7704708F0FDFC606600287FF46B
:105EEC004FAF206EBDE8F04108F04ABD686D002848
:105EFC0000F0B0804FF40072394600F025FF83B2F9
:105F0C0079E70E2BDFD1A56A002D91D02B68DB6AC7
:105F1C004C4FBB427AD1A86D18B10CF0EBF90023B1
:105F2C00AB652B6D002B4AD005F1180005F0A2FAD9
:105F3C00A66A7568013D7560002D2FD13368DB6A48
:105F4C00BB4271D1B06D10B10CF0D4F9B565336DA5
:105F5C00002B65D006F1180005F08CFAA56AEDB19E
:105F6C002B68394A5B68934261D1384BA86D2B6022
:105F7C0018B10CF0BFF90023AB652B6D05F11806B9
:105F8C00002B3FD0304605F075FA314B3046AB60F4
:105F9C0005F070FA5C21284609F0A2FD0023A362EB
:105FAC0046E72046FFF70EFD00283FF4F4AE8AE7E3
:105FBC0028464FF400723946984783B21BE76B6D45
:105FCC00002BB1D1B4E76A6D002AA0D092F8311041
:105FDC0009079CD510681169091A5069526860EB61
:105FEC000202B1F1004F72F1000201D36FF00041D7
:105FFC0000297FF4EBAE8AE70122216E204608F0DF
:10600C00E7FC3FE76B6D002BBCD1BEE728469847F9
:10601C008EE728469047A56A00287FF4D7AE73E731
:10602C00736D002B96D199E73046984796E7284632
:10603C009847B3E7851900001118000090A70020BD
:10604C001489002051130000651A0000600B002019
:10605C00C00900204FF0FF30A4F86C82D0E600BFDE
:10606C0090F86F0207288CBF00200120704700BFFA
:10607C0090F81CC04160BCF1020FC26001D1836872
:10608C00184708F053BE00BFF0B4046840F2012575
:10609C001E462561A3B121B311F8015B013B656676
:1060AC00256FAF0707D41546013E676F1AB105F887
:1060BC00017B2A4604686569ED07F1D5002BEAD10E
:1060CC006EB10368196F8907FAD41146013E5B6FF4
:1060DC00002AF5D001F8013B0A46002EF1D1F0BCA4
:1060EC00704790F83C50D9E7324B334930B5D3E97F
:1060FC0011542079C8771A6C95F804C081F81CC02B
:10610C00087752B1B2F5004F23D32C4911442A4AD7
:10611C001964D07682F81BC030BD19680F24D86C76
:10612C008C6540F20134CA610C614FF47C544C61B3
:10613C0003210468246883F83D10214B9C4226D12E
:10614C00037F4260022BC26026D18368BDE83040D9
:10615C0018472D68E98B090422D492B2EA8321688E
:10616C00EC8BA4B2EC82CC8B240405D5CC8BC2F383
:10617C00080204F47E442243CA83CA8B92B2CA82B8
:10618C0000210D4A1964D07682F81BC030BD23461D
:10619C001146BDE830401847BDE8304008F0C6BD98
:1061AC00E98BC2F3080E92B201F47E4141EA0E0172
:1061BC00E983D4E71489002000800E400180FFFFA2
:1061CC00D137000043682DE9F04FD3E90041814DF0
:1061DC004FF0B80A22684FF0020822EA01027E4909
:1061EC002260AA6911407D4A0A43AA6190F810E026
:1061FC007B4A03EB0E0603EB8E0E317C02EB011196
:10620C008968C1F800A090F811C003EB0C0503EBF2
:10621C008C0C95F8201002EB01118968C1F800A0D4
:10622C00817C03EB010903EB810199F830B002EB9F
:10623C000B1BDBF808B0CBF800A0D4F800A05F680B
:10624C004AEA070AC4F800A0347CDEF814E002EB3A
:10625C0004146468C4F800E095F82040DCF824C00D
:10626C0002EB04146468C4F800C0496B99F8304020
:10627C0002EB041252681160DA6B99F83810116055
:10628C00DA69317EDB6A116095F828201A600F22DA
:10629C000368C3F810809A65C27C002A31D072B6AC
:1062AC00C37CDC0708D54FF0E0214469D1F880218C
:1062BC0022408262C1F88021990708D54FF0E02175
:1062CC008469D1F884212240C262C1F884215A0722
:1062DC0008D54FF0E021C469D1F88821224002632F
:1062EC00C1F888211F0708D54FF0E021046AD1F8C6
:1062FC008C2122404263C1F88C21DE0655D462B653
:10630C000368384C8268A24259D0324A8460926940
:10631C003549C2F30116C2F38262344D51F826108E
:10632C000132B1FBF2F2AA4231D80022C260002441
:10633C0003211C610724596201211A641C6619612E
:10634C00C37C13B3DD0704D5816A4FF0E022C2F899
:10635C0000119C0704D5C16A4FF0E022C2F8041169
:10636C00590704D5016B4FF0E022C2F808111A0747
:10637C0004D5416B4FF0E022C2F80C11DB0604D5BA
:10638C00826B4FF0E023C3F81021BDE8F08F184961
:10639C00A1FB0251090DB2FBF1F2A24288BF0131FF
:1063AC00B1F5817F0DD3134AC0E74FF0E022416A6B
:1063BC00D2F890310B408363C2F890319FE7C268EA
:1063CC00B5E70229B1D902394C08220242EA04424B
:1063DC000A43ABE700C00F40CFFFFFE310000008FB
:1063EC00E07A002000093D00AC0C0020FF083D00C5
:1063FC0083DE1B43FF7F7F00704700BF704700BFE9
:10640C009F290FD84B09012201F01F0102FA03FC4E
:10641C0000EB83038A40C17C41EA0C01C1745969C9
:10642C0011435961704700BF9F2918D8012200B54C
:10643C004FEA511E01F01F0100EB8E0C02FA01F124
:10644C00DCF8143023EA0103CCF814302BB9C37CEC
:10645C0002FA0EF223EA0203C3745DF804FB7047E0
:10646C000BB1FFF711BE70474368D3E900120968FE
:10647C00114200D1704710B5026804460020052176
:10648C001061227C1344187C09F04EFA627C63681C
:10649C000521134493F8200009F046FA6368A27CA6
:1064AC0005211344BDE8104093F8300009F03CBAC4
:1064BC00704700BF30B583B005460C4609F0CAFCE6
:1064CC001C4B984204D800232B80238003B030BD92
:1064DC00694608F0F3FE9DF805309DF8062001335F
:1064EC009DF80410503ADBB292B21F2998BF0C2BC6
:1064FC0001D87F2A18D900219DF802209DF801307F
:10650C002980172A98BF3B2B9DF8001001D83B29F6
:10651C0003D90023238003B030BD5B0143EAC223BF
:10652C0043EA51039BB2F5E741EA431141EA4221A8
:10653C0089B2E1E7FFA5CE12012BF0B5054695B067
:10654C003DD0022B40F2022001F104010CBF0346A6
:10655C000023684605F0A8F8129B002B38D05C206D
:10656C00002609F0BBFA214B04AF0446C0E9003603
:10657C00019B3946183040F80C3C1D4B40F8103C40
:10658C00029B40F8083C9DF80C3000F8043C04F0E9
:10659C002FFF184B4FF47A72A665A360164B6E60F2
:1065AC002B6063682E730133AA602C616360134BFC
:1065BC003846009304F05EFF284615B0F0BD44F257
:1065CC0002230431684605F06FF8129B002BC6D1EC
:1065DC00139B002BC3D14FF47A71074A04AF2B7372
:1065EC002A602B61C5E90131E1E700BF600B002097
:1065FC00BC0B00203C0B0020100B0020C00900201D
:10660C0010B5D0F884448EB00A4644B1002321461C
:10661C006846009302F01EFE80B90EB010BDD0F893
:10662C00881441B1234668460C9400F031FF50B9F0
:10663C0000200EB010BD08460EB010BD684603F029
:10664C005DF80EB010BD684600F0E0FF0028EFD0FA
:10665C00E3E700BF70B5D0F884548EB016465DB138
:10666C0005F5896500230A4668462946009302F021
:10667C006FFD90B90EB070BDD0F888040028F9D029
:10668C0000F589640A462B46684621460C9500F0B5
:10669C0083FE48B900200EB070BD324629466846CC
:1066AC0002F036FF0EB070BD32462146684601F04E
:1066BC0001F90028EED0DDE710B5D0F884448EB097
:1066CC000A464CB10020012321460090684602F096
:1066DC00C1FD80B90EB010BDD0F8881441B10123B2
:1066EC0068460C9400F0D4FE50B900200EB010BDDA
:1066FC0008460EB010BD684603F0B2FE0EB010BDD9
:10670C00684600F029FF0028EFD0E3E730B5D0F859
:10671C0084448FB00A464CB10025012304F58961ED
:10672C006846009502F09EFC0FB030BDD0F888048E
:10673C000028F9D000F58961012368460C9401F01A
:10674C003BF90FB030BD00BF10B5D0F884448EB00B
:10675C000A463CB1002321466846009302F07AFDBC
:10676C000EB010BDD0F8881431B1234668460C9495
:10677C0000F08EFE0EB010BD08460EB010BD00BF6E
:10678C00F8B5054690F8D00408B90146F8BDD5F81F
:10679C008434002B4CD0DC69D5F89004013C0028E3
:1067AC0054D00368DB6B9847E0B1D5F8900478B30C
:1067BC0003681B6C9847A8B9D5F8900440B30368DC
:1067CC0001215B6C9847074610B3D5F8840458BB7D
:1067DC00D5F8886433466EB9D5F8900490B900208A
:1067EC000146D3E7D5F88404E8B9D5F88834002BF2
:1067FC00F5D00746184602F0B3F906463FB1D5F876
:10680C00900428B1036800215B6C984700B1A41B6D
:10681C00D5F88434FBB19B794FF40071994089B25F
:10682C00A1FB0401F8BD002704F06CFC0646E5E76B
:10683C00D5F88834D5F89004B3B1D3F83044002897
:10684C00AFD1184602F08CF90646E0E7184604F082
:10685C0059FC0646DBE7D5F88864002EBFD0D6F885
:10686C003C14A1FB0401F8BD0028B8D01C4698E7E5
:10687C0090F8D03463B1D0F8843463B19A794FF482
:10688C000070D9699040013980B2A0FB01017047BA
:10689C00184601467047D0F888040028F9D0D0F883
:1068AC003C14D0F83004A1FB000170472DE9F043F3
:1068BC00D0F890548DB04DB198462B6804462846BC
:1068CC00DB699847B0F5405F064604D80026304691
:1068DC000DB0BDE8F0834FF400700BF003FD0746DC
:1068EC000028F3D00DF10409B6F1806F024643463F
:1068FC00294648462ED901F0FFFB064638460BF0D8
:10690C00F9FC002EE2D02B682846271D1B6A9847FD
:10691C0094F8C034FF2B21D0D4F8C43404F594651A
:10692C0002932846D4F8C8340393B4F8C034ADF8B5
:10693C00043099E80E0005F07DFD94F8B134C4F8EC
:10694C009054002BC3D10123294638461A4604F033
:10695C0039FEBCE704F09CF80646CFE704F29445F8
:10696C0094F8CC14284606F0ADFB2846C4F8905495
:10697C0005F00AFE0028AAD10123D4F89014384659
:10698C001A4604F01FFEA2E7F0B5D0F8906485B06B
:10699C000446002E42D090F8D05490F8D13485B1F2
:1069AC00FE2B63D094F8D20427283DD9336869466E
:1069BC0030469B6C98470546284684F8D05405B061
:1069CC00F0BDFE2B26D090F8D204272849D994F894
:1069DC00C034271DFF2B2DD0D4F8C43404F5946695
:1069EC00D4F8C82401933046B4F8C0340292ADF800
:1069FC0000306B460ECB05F01DFD94F8B134C4F895
:106A0C00906463B90123314638461A4604F0DAFD26
:106A1C00054604E01F4B9B689B03D8D400252846F1
:106A2C0084F8D05405B0F0BD08F06CFF051E18BFFB
:106A3C000125F4E704F2944694F8CC14304606F0A1
:106A4C0041FB3046C4F8906405F09EFD0028E6D169
:106A5C000123D4F8901438461A4604F0B3FD0546C9
:106A6C00DDE708F04FFF0028B1D1D7E73368304697
:106A7C005B6D9847421C034694D00028CFD194F804
:106A8C00D124FE2ACAD1032126201D4608F04CFF32
:106A9C00C5E700BF00800042F0B50D46044685B046
:106AAC00304806F0C7FFFE2D84F8D15426D0272D90
:106ABC0002D9002005B0F0BD00262B4B04F59467DD
:106ACC008DF80450C4F8C4348DF80560384684F849
:106ADC00C05484F8C164C4F8C864CDE9023604AB70
:106AEC0013E90E0005F0A6FC94F8B134C4F89074C8
:106AFC0083B3304684F8D00405B0F0BD04F294455D
:106B0C000023FF221946284684F8CC3484F8C0248C
:106B1C0006F0D8FA2846C4F8905405F035FD70B943
:106B2C000123D4F89014201D1A4604F04BFD30B10B
:106B3C000122262384F8D02484F8D234BAE7262004
:106B4C000025032184F8D20484F8D05408F0ECFE1C
:106B5C002846AFE701233946201D1A4604F032FDC2
:106B6C00C8E700BF153C000040787D0118484FF085
:106B7C00290C184A0023184910B4C0F89424072291
:106B8C0080F8B1C44FF0FF0CC0F8A8144FF47F414B
:106B9C00124CC0F8AC24124AA0F8D014A0F89C34C3
:106BAC0080F8B53480F8CC3480F8D2C40460C0F8D6
:106BBC00A0240C490C4A5DF8044BC0F88434C0F88E
:106BCC008834C0F8903480F8BC340AF0E9BE00BFB9
:106BDC00C89C0020340C002000093D00E00B002074
:106BEC002C0A0020113C0000008E002070B500F132
:106BFC00240384B08C46044601AD164693E8070086
:106C0C0085E807004FEA4C122946206A01F0C4FEC1
:106C1C00012806D132462946206A01F0A1FE04B0B3
:106C2C0070BD002004B070BD10B5044600F0BAFD74
:106C3C00002384F8313084F8333010BD38B5144655
